:030000000206E90C
:0C06E900787FE4F6D8FD75811702073019
:1002D9004182CCCD418A8F5C4192CCCD419B999A88
:1002E90041A4CCCD41AEA3D741B8F5C341C4000068
:1002F90041CFAE1441DC000041E91EB841F6F5C317
:1003090003E84140000034647E2C34647E2C33675A
:100319007E2C33617E2C34642E2C34647E2C34671D
:100329007E2C34617E2C34627E2C34613D2C346702
:100339003D2C34642E2C3420657E2C33617E2C3484
:10034900637E2C33677E2C33617E2C34647E2C349F
:1003590064202C34643D2C34633D2C33617E2C3471
:10036900637E2C33677E2C33617E2C34646F346753
:100379007E2C34677E2C34647E2C33617E2C34676A
:100389002E2C34677E2C34617E2C34677E2C3462AB
:100399003D2C34613D2C34677E2C34642E2C342062
:1003A900677E2C3465202C34657E2C34647E2C3495
:1003B90063202C34647E2C34647E2C33617E2C348F
:1003C900647E2C33627E2C33617E2C33676F2C3430
:1003D90064202C34676F34676F2C3461202C3462AD
:1003E9007E2C34617E2C34467E2C34672E2C34646A
:1003F9007E2C34677E2C34617E2C34613D2C346232
:100409003D2C34617E2C34672E2C34647E2C3320B1
:1004190061202C3361202C33617E2C3464202C34F0
:10042900647E2C3464202C33613D2C33623D2C33A3
:10043900617E2C33672E2C34623D2C34613D346748
:100449007E2C34647E2C34677E2C34647E2C33619C
:100459002E2C34677E2C3467202C34467E2C346154
:100469007E2C35642E2C34613D2C34623D2C346451
:10047900202C3361202C34676F2C34647E2C346437
:100489007E2C33677E2C33617E2C34646F2C346769
:100499007E2C34677E2C34647E2C33617E2C346749
:1004A9006F2C34677E34647E2C34677E2C34617EF5
:1004B9002C3441202C34617E2C35647E2C34627EB0
:1004C9002C34617E2C34677E2C34467E2C34672094
:1004D9002C3464202C3464202C34677E2C34617EC7
:1004E9002C3441202C34617E2C35647E2C34627E80
:1004F9002C34617E2C34677E2C34467E2C34676F15
:030509002C730050
:0E08B800010AFF010BFF02080000020C000005
:080850008F178E168D158C1414
:10085800E4FFFE7DC07C41AB17AA16A915A81412A7
:10086800000EC004C005C006C0077F007E247D744A
:100878007C4990030B1202A312000ED003D002D0C1
:1008880001D0001201171201F2C3E49FFFE49E8F0A
:030898000BF50A53
:01089B00223A
:02050C00AB073B
:10050E00ED1202B3056C41053F43054944055846BB
:10051E00056247056761057162053A630544640526
:10052E004E65055366055D670000057F9002D98014
:10053E00359002DD80309002E1802B9002E580261E
:10054E009002E980219002ED801C9002F1801790BC
:10055E0002F580129002F9800D9002FD8008900342
:10056E000180039003051202938F138E128D118C4E
:10057E0010EB24CFB40800400302063B900598759B
:10058E00F003A4C58325F0C583730205B00205BE32
:10059E000205CF0205DF0205F00206000206110277
:1005AE000621AF13AE12AD11AC10E4FBFAF9800DBB
:1005BE00AF13AE12AD11AC10E4FBFA798078408027
:1005CE0061AF13AE12AD11AC10E4FBFAF9784180B5
:1005DE0051AF13AE12AD11AC10E4FBFA7980784135
:1005EE008040AF13AE12AD11AC10E4FBFAF97842B5
:1005FE008030AF13AE12AD11AC10E4FBFA798078F7
:10060E0042801FAF13AE12AD11AC10E4FBFAF978B5
:10061E0043800FAF13AE12AD11AC10E4FBFA79802C
:10062E00784312000E8F138E128D118C10AF13AEF5
:08063E0012AD11AC10020850CE
:0407E300AD07AC06AC
:1007E700751000850A11E511F510E50BF511E412F6
:1007F70001B990030B1202A312000EE4FBFA797AF7
:10080700784412000EE4FBFA79407841120117C0D0
:1008170004C005C006C007AE10AF11AB07AA06E4B7
:10082700C39BFFE49AFE74019400FDE49400FC125C
:1008370001B4A804A905AA06AB07D007D006D005BE
:08084700D0041201171201F2A6
:01084F002286
:10077500EF24E0602A24F2603B24BF604A24F16044
:100785000F24417058900309E493FE74019380216E
:1007950090030974019325E0FFE49333FE803B90B9
:1007A5000309E493FE7401937802C333CE33CED8A4
:1007B500F9FF8026900309E493FE740193FF7C0002
:1007C5007D061202738013900309E493FE7401936E
:0E07D5007803C333CE33CED8F9FF1207E322E8
:03000B00020646A4
:10064600C0E0C0F0C083C082C0D075D000C000C07A
:1006560001C002C003C004C005C006C007B2A08521
:100666000B8A850A8CE50D450C703C740F2509F53F
:100676008274033508F583E493FFB47302C28C7465
:10068600102509F58274033508F583E493FD1205F8
:100696000C74112509F58274033508F583E493FF7C
:1006A6001207758E0E8F0F050DE50D7002050CB540
:1006B6000F16E50CB50E11750C00750D00740425AA
:1006C60009F509E43508F508D007D006D005D004A9
:1006D600D003D002D001D000D0D0D082D083D0F0C9
:0306E600D0E0322F
:10089C00E4F5B0F5A0F590F580C2AF758902758AC4
:0C08AC00FF758CFFD2A9D2AFD28C80FE69
:10000E00EC4D6011E8497017ED33EC3304600DE4EC
:10001E00FCFFFEFD22E933E8330470F802025E12A3
:10002E00022958046009E4CC2481500628500902A4
:10003E000268284003020265C0E0EB4A7044B980B2
:10004E0006D0E0FB020254EF4E701CBD8008EBFFA1
:10005E00EAFEE9FD80EBE98DF0A4FEE5F00200F783
:10006E00E9CDF9EAFEEBFFEF89F0A4FCE5F0CE89CD
:10007E00F0A42EFFE435F0CD89F0A42DFEE435F08A
:10008E008067EF4E7005BD80D780C3EF8BF0A4ACB8
:10009E00F0EE8BF0A42CFCE435F0F8EF8AF0A42CF3
:1000AE00E5F038FCE433CB8DF0A42CFCE5F03BF806
:1000BE00EE8AF0A42CFCE5F038F8E433CF89F0A4F6
:1000CE002CFCE5F038CF3400CE89F0A42FFFE5F0FC
:1000DE003EFEE433C98DF0A42EFEE5F039CD8AF054
:1000EE00A42FFFE5F03EFEE43DFD33D0E0FB5007CC
:1000FE000BBB000F020268EC2CFCEF33FFEE33FE5D
:06010E00ED33FD0202408A
:10011400020268EC5D046005E85904700302025EA3
:10012400120229580460F6EC4860F2EC7004FDFEFB
:10013400FF22C860DB2481C85009C39860025006BE
:100144000202659850CAF582E9294B4A7005AB82D0
:1001540002025475F0007C1A7880C3EF9BEE9AED8E
:1001640099400DC3EF9BFFEE9AFEED99FDE842F036
:10017400DC23ACF0D0E0FFD0E0FED0E0FDAB822089
:10018400E7101BEB60BAEC2CFCEF33FFEE33FEED13
:1001940033FD020240E803F830E705C0F075F000D3
:1001A400EF2FFFEE33FEED33FD40B830E7C280AAF7
:1001B40075F020800E75F010800575F0087D007EC6
:1001C400007F003392D530D503120285EC33401002
:1001D400EF33FFEE33FEED33FDEC33FCD5F0ED22CF
:0E01E400E5F0247EA2D513CC92E7CDCEFF220B
:1001F200EDD2E7CD33EC3392D524814006E4FFFE05
:10020200FDFC22FCE4CFCECDCC24E0501174FF8063
:10021200EDC3CC13CCCD13CDCE13CECF13CF047000
:07022200F030D5DE02028579
:10022900E9D2E7C933E833F892D5EDD2E7CD33EC1B
:0702390033FC5002B2D52294
:10024000EC30E7100FBF000C0EBE00080DBD00041F
:100250000BEB6014A2D5EB13FCED92E7FD2274FFCB
:10026000FCFDFEFF22E480F8A2D574FF13FC7D8024
:03027000E480EF38
:1006F50002089CE493A3F8E493A34003F68001F277
:1007050008DFF48029E493A3F85407240CC8C33305
:10071500C4540F4420C8834004F456800146F6DFD4
:10072500E4800B01020408102040809008B8E47EA4
:10073500019360BCA3FF543F30E509541FFEE493C9
:10074500A360010ECF54C025E060A840B8E493A390
:10075500FAE493A3F8E493A3C8C582C8CAC583CABB
:10076500F0A3C8C582C8CAC583CADFE9DEE780BE73
:0108C6000031
:10027300EF8DF0A4A8F0CF8CF0A428CE8DF0A42E9F
:02028300FE2259
:0E028500C3E49FFFE49EFEE49DFDE49CFC228A
:10029300E493FC740193FD740293FE740393FF22B1
:1002A300E493F8740193F9740293FA740393FB22B1
:1002B300D083D082F8E4937012740193700DA3A3DA
:1002C30093F8740193F5828883E4737402936860EE
:0602D300EFA3A3A380DFEE
:00000001FF
