:04013C0002080000B5
:10010800E4FDFCC3ED9FEC9E5015E4FBFA0BBB002D
:0F011800010AEB647E4A70F50DBD00010C80E416
:0101270022B5
:10008F008F0F8E0E8D0D8C0C750A00750B20E4FFF3
:10009F00FEFDE50C5480FCE4FBFAF97880C31200F6
:1000AF00E47004D2B08002C2B0AF0FAE0EAD0DAC93
:1000BF000C78011200F58F0F8E0E8D0D8C0CC2B1C6
:1000CF00D2B1E50B150B7002150AE50B450A70BE90
:0500DF00C2B1D2B12204
:100128007F127E557DFE7CAA12008F7FE87E031227
:04013800010880EC4E
:03000000020003F8
:0C000300787FE4F6D8FD75810F02004AFA
:1000E400EB9FF5F0EA9E42F0E99D42F0E89C45F072
:0100F40022E9
:1000F500E8600FEFC333FFEE33FEED33FDEC33FC69
:03010500D8F1220C
:10000F00020128E493A3F8E493A34003F68001F2DE
:10001F0008DFF48029E493A3F85407240CC8C333F2
:10002F00C4540F4420C8834004F456800146F6DFC1
:10003F00E4800B010204081020408090013CE47E14
:10004F00019360BCA3FF543F30E509541FFEE493B6
:10005F00A360010ECF54C025E060A840B8E493A37D
:10006F00FAE493A3F8E493A3C8C582C8CAC583CAA8
:10007F00F0A3C8C582C8CAC583CADFE9DEE780BE60
:0101400000BE
:00000001FF
