:100F2800020800FF020A00FE020C007F020E00FF0A
:0C0F3800021800FF021A00FE021C00FE5E
:0C0EF6008F908FB08F808FA07F327E0025
:100F0200E4FDFCC3ED9FEE6480F8EC64809850151C
:100F1200E4FBFA0BBB00010AEB64794A70F50DBDE4
:050F220000010C80DE5F
:010F270022A7
:100794008F828E83E4F516F517C3E5179582E583FA
:0D07A4006480F8E51664809840030208ADFB
:1007B1007538007539FF753A00753BFE753C00755B
:1007C1003D7F753E00753FFF751000751108E4F51A
:1007D10012F513C3E5139511E5106480F8E5126471
:1007E10080985027E539553BF580F5B0F5A0F59097
:1007F100120EFEE53B25E0F53BE53A33F53A433B86
:10080100010513E51370CC051280C8753A00753BDC
:10081100FEE538A2E713F538E53913F539E5111589
:100821001170021510D3E5119400E51064809480D5
:10083100509C751000751108E4F512F513C3E5130A
:100841009511E5106480F8E512648098502AE53F1F
:10085100553DF580F5B0F5A0F590120EFEE53CA2F0
:10086100E713FEE53D132480F53DE43EF53C051319
:10087100E51370C9051280C5753C00753D7FE53FE4
:1008810025E0F53FE53E33F53EE511151170021502
:0E08910010D3E5119400E51064809480509A15
:0F089F000517E517600302079D051602079D2246
:1003B7008F828E83E4F516F517C3E5179582E583DB
:0D03C7006480F8E516648098400302050F7D
:1003D4007540007541FF7542007543FE7544007514
:1003E40045FE751400751508E4F512F5138543A050
:1003F400120EFEE54325E0FFE54233FEEF2401F54E
:1004040043E43EF5420513E51370020512C3940854
:10041400E5126480948040D575A0FFE4F510F511D1
:10042400C3E5119515E5146480F8E51064809850CF
:1004340025E5415545F5B0120EFEE54525E0FFE5FD
:100444004433FEEF2401F545E43EF5440511E5117E
:1004540070CE051080CA7542007543FE7544007560
:1004640045FEE540A2E713F540E54113F541E515E6
:10047400151570021514D3E5159400E514648094E1
:100484008040030203EC7540007541FF751400754C
:100494001508E4F510F511C3E5119515E51464800C
:1004A400F8E5106480985025E5415545F5A0120EF5
:1004B400FEE54525E0FFE54433FEEF2401F545E480
:1004C4003EF5440511E51170CE051080CA7544004F
:1004D4007545FE7542007543FEE540A2E713F540FD
:1004E400E54113F541E515151570021514D3E5150D
:0D04F4009400E51464809480509875B0FF6A
:0F0501000517E51760030203C005160203C022A9
:100257008F828E83E4F516F517C3E5179582E5833C
:0D0267006480F8E51664809840030203B639
:10027400752E00752FFF75300075317F753200754E
:10028400337F75340075357F7536007537FF751407
:1002940000751508E4F512F513853190120EFEE58C
:1002A40030A2E713FEE531132480F531E43EF53046
:1002B4000513E51370020512C39408E512648094D3
:1002C4008040D67590FFE4F510F511C3E51195153E
:1002D400E5146480F8E5106480985024E52F5533C4
:1002E400F580120EFEE532A2E713FEE533132480F7
:1002F400F533E43EF5320511E51170CF051080CBDE
:1003040075320075337F75300075317FE52F25E038
:10031400F52FE52E33F52EE515151570021514D3BA
:10032400E5159400E51464809480400302029875F6
:100334002E00752FFF751400751508E4F510F511DE
:10034400C3E5119515E5146480F8E51064809850B0
:1003540024E52F5533F590120EFEE532A2E713FE85
:10036400E533132480F533E43EF5320511E51170CD
:10037400CF051080CB75320075337F753000753131
:100384007FE52F25E0F52FE52E33F52EE515151520
:1003940070021514D3E5159400E51464809480501C
:0403A4009A7580FFC7
:0F03A8000517E5176003020260051602026022C6
:100003008F828E83E4F516F517C3E5179582E58392
:0D0013006480F8E5166480984003020256F0
:10002000751E00751FFF75200075217F75220075F4
:10003000237F7524007525FE7526007527FF75281A
:10004000007529FF752A00752BFE752C00752DFE95
:10005000751400751508E4F512F513852190120E3C
:10006000FEE520A2E713FEE521132480F521E43EFE
:10007000F5200513E51370020512C39408E5126418
:1000800080948040D67590FFE4F510F511C3E5111A
:100090009515E5146480F8E5106480985024E51FF8
:1000A0005523F580120EFEE522A2E713FEE5231389
:1000B0002480F523E43EF5220511E51170CF0510EB
:1000C00080CB75220075237F75200075217FE51F89
:1000D00025E0F51FE51E33F51EE4F512F513852B1B
:1000E000A0120EFEE52B25E0FFE52A33FEEF2401EA
:1000F000F52BE43EF52A0513E51370020512C394AF
:1001000008E5126480948040D575A0FFE4F510F5F1
:1001100011C3E5119515E5146480F8E51064809825
:100120005025E529552DF5B0120EFEE52D25E0FFF1
:10013000E52C33FEEF2401F52DE43EF52C0511E509
:100140001170CE051080CA752A00752BFE752C0023
:10015000752DFEE528A2E713F528E52913F529E515
:1001600015151570021514D3E5159400E514648077
:10017000948040030200567528007529FF751E0003
:10018000751FFF751400751508E4F510F511C3E52A
:10019000119515E5146480F8E5106480985024E505
:1001A0001F5523F590120EFEE522A2E713FEE5236C
:1001B000132480F523E43EF5220511E51170CF05E7
:1001C0001080CB75220075237F75200075217FE597
:1001D0001F25E0F51FE51E33F51EE4F510F511C3EC
:1001E000E5119515E5146480F8E5106480985025B4
:1001F000E529552DF5A0120EFEE52D25E0FFE52C95
:1002000033FEEF2401F52DE43EF52C0511E51170C8
:10021000CE051080CA752C00752DFE752A00752B31
:10022000FEE528A2E713F528E52913F529E51515BC
:100230001570021514D3E5159400E51464809480BC
:0802400040030201897580FFF3
:0F0248000517E517600302000C051602000C22D3
:100EB3008F828E83E4F516F517C3E5179582E583D4
:100EC3006480F8E516648098502875B0AA75A0AAC6
:100ED3007590AA7580AA120EFE75B05575A055754A
:100EE3009055758055120F020517E51770CB05163F
:030EF30080C72293
:1009AA008F828E83E4F516F517C3E5179582E583E2
:1009BA006480F8E5166480984003020A91750A007B
:1009CA00750BFEE4F510F511850B80120EFEE50B92
:1009DA0025E0F50BE50A33F50A0511E51170020564
:1009EA0010C39408E5106480948040DC750A007591
:1009FA000BFEE4F510F511850B90120EFEE50B25A2
:100A0A00E0F50BE50A33F50A0511E5117002051048
:100A1A00C39408E5106480948040DC750A00750B65
:100A2A00FEE4F510F511850BA0120EFEE50B25E08C
:100A3A00F50BE50A33F50A0511E51170020510C335
:100A4A009408E5106480948040DC750A00750BFEFA
:100A5A00E4F510F511850BB0120EFEE50B25E0F555
:100A6A000BE50A33F50A0511E51170020510C39466
:100A7A0008E5106480948040DC0517E517600302DE
:080A8A0009B305160209B322AD
:1008AE008F828E83E4F516F517C3E5179582E583DF
:1008BE006480F8E51664809840030209A9E4F50AFD
:1008CE00F50BF510F511850B80120EFEE50B25E0EC
:1008DE00FFE50A33FEEF2401F50BE43EF50A0511A0
:1008EE00E51170020510D39408E5106480948040E1
:1008FE00D5E4F50AF50BF510F511850B90120EFEE9
:10090E00E50B25E0FFE50A33FEEF2401F50BE43E8F
:10091E00F50A0511E51170020510D39408E510646F
:10092E0080948040D5E4F50AF50BF510F511850B92
:10093E00A0120EFEE50B25E0FFE50A33FEEF2401C3
:10094E00F50BE43EF50A0511E51170020510D3947E
:10095E0008E5106480948040D5E4F50AF50BF51097
:10096E00F511850BB0120EFEE50B25E0FFE50A33FF
:10097E00FEEF2401F50BE43EF50A0511E5117002B8
:10098E000510D39408E5106480948040D50517E5D2
:0C099E001760030208B705160208B72214
:100BD0008F828E83E4F516F517C3E5179582E583BA
:100BE0006480F8E516648098507A750C00750D7F66
:100BF000E4F512F513AF0D8F908FB0120EFEE50CD9
:100C0000A2E713FEE50D132480F50DE43EF50C0577
:100C100013E51370020512C39408E51264809480F2
:100C200040D3750C00750D7FE4F512F513AF0D126E
:100C30000EFAE50CA2E713FEE50D132480F50DE492
:100C40003EF50C0513E51370020512C39408E51276
:100C50006480948040D70517E5176003020BD9051F
:050C600016020BD92271
:100C65008F828E83E4F516F517C3E5179582E58324
:100C75006480F8E51664809850737580FF75A0FF51
:100C8500750C00750D7FE4F512F513AF0D8F908F80
:100C9500B0120EFEE50CA2E713F50CE50D13F50DEC
:100CA5000513E51370020512C39408E512648094D8
:100CB5008040D8750C00750D7FE4F512F513AF0D66
:100CC500120EFAE50CA2E713F50CE50D13F50D056B
:100CD50013E51370020512C39408E512648094802D
:0E0CE50040DC0517E51770810516020C6E2223
:100B32008F828E83E4F516F517C3E5179582E58358
:100B42006480F8E5166480984003020BCFE4F580D8
:100B5200F5A0F50CF50DF512F513AF0D8F908FB0D2
:100B6200120EFEE50CA2E713FEE50D132480F50D2F
:100B7200E43EF50C0513E51370020512C39408E573
:100B8200126480948040D37590FF75B0FFE4F50C39
:100B9200F50DF512F513AF0D120EFAE50CA2E713DF
:100BA200FEE50D132480F50DE43EF50C0513E51367
:100BB20070020512C39408E5126480948040D70540
:0E0BC20017E5176003020B3B0516020B3B22E2
:100A92008F828E83E4F516F517C3E5179582E583F9
:100AA2006480F8E5166480984003020B317580FF7C
:100AB20075A0FFE4F50CF50DF512F513AF0D8F904F
:100AC2008FB0120EFEE50CA2E713FEE50D13248093
:100AD200F50DE43EF50C0513E51370020512C394FF
:100AE20008E5126480948040D37590FF75B0FFE4EE
:100AF200F50CF50DF512F513AF0D120EFAE50CA279
:100B0200E713FEE50D132480F50DE43EF50C051305
:100B1200E51370020512C39408E5126480948040C4
:100B2200D70517E5176003020A9B0516020A9B22E6
:100D7F008F828E83E4F516F517C3E5179582E58309
:100D8F006480F8E516648098505D750C00750D7FD2
:100D9F00E4F512F513D3E5139401E5126480948002
:100DAF00AF0D4016120EF6E50CA2E713FEE50D137C
:100DBF002480F50DE43EF50C800F120EF6E50CA223
:100DCF00E713F50CE50D13F50D0513E5137002058B
:100DDF0012C39409E5126480948040B90517E51792
:080DEF0070020516020D8822B6
:100DF7008F828E83E4F516F517C3E5179582E58391
:100E07006480F8E516648098505D750C00750DFEDA
:100E1700E4F512F513D3E5139401E5126480948089
:100E2700AF0D4017120EF6E50D25E0FFE50C33FE7A
:100E3700EF2401F50DE43EF50C800E120EF6E50DDC
:100E470025E0F50DE50C33F50C0513E513700205E8
:100E570012C39409E5126480948040B90517E51719
:080E670070020516020E0022C4
:100510008F828E83E4F516F517C3E5179582E58380
:100520006480F8E5166480984003020651750C005B
:10053000750DFE750E00750F7FE4F512F513D3E50A
:10054000139400E51264809480402E850DA0850FE1
:1005500090120EFEE50EA2E713FEE50F132480F5C0
:100560000FE43EF50EE50D25E0FFE50C33FEEF242C
:1005700001F50DE43EF50C8020850DA0850F90124D
:100580000EFEE50D25E0F50DE50C33F50CE50EA2AC
:10059000E713F50EE50F13F50F0513E513700205CC
:1005A00012C39409E51264809480409275B0FF757F
:1005B000A0FF7590FF7580FF750C00750DFE750E20
:1005C00000750F7FE4F512F513D3E5139400E512DF
:1005D00064809480402E850DB0850F80120EFEE55C
:1005E0000D25E0FFE50C33FEEF2401F50DE43EF5AB
:1005F0000CE50EA2E713FEE50F132480F50FE43E91
:10060000F50E8020850DB0850F80120EFEE50D25BC
:10061000E0F50DE50C33F50CE50EA2E713F50EE55C
:100620000F13F50F0513E51370020512C39409E5C6
:100630001264809480409275B0FF75A0FF7590FFA2
:100640007580FF120EFE0517E517700205160205EC
:0206500019226D
:100652008F828E83E4F516F517C3E5179582E5833D
:100662006480F8E5166480984003020793750C00D5
:10067200750DFE750E00750F7FE4F512F513D3E5C7
:10068200139400E51264809480402E850D80850FBE
:10069200B0120EFEE50EA2E713FEE50F132480F55D
:1006A2000FE43EF50EE50D25E0FFE50C33FEEF24E9
:1006B20001F50DE43EF50C8020850D80850FB0120A
:1006C2000EFEE50D25E0F50DE50C33F50CE50EA269
:1006D200E713F50EE50F13F50F0513E51370020589
:1006E20012C39409E51264809480409275B0FF753C
:1006F200A0FF7590FF7580FF750C00750DFE750EDD
:1007020000750F7FE4F512F513D3E5139400E5129B
:1007120064809480402E850D90850FA0120EFEE518
:100722000D25E0FFE50C33FEEF2401F50DE43EF567
:100732000CE50EA2E713FEE50F132480F50FE43E4D
:10074200F50E8020850D90850FA0120EFEE50D2579
:10075200E0F50DE50C33F50CE50EA2E713F50EE519
:100762000F13F50F0513E51370020512C39409E583
:100772001264809480409275B0FF75A0FF7590FF5F
:100782007580FF120EFE0517E517700205160206A8
:020792005B22E8
:100E6F008F828E83E4F516F517C3E5179582E58318
:100E7F006480F8E5166480985029E4F590F5B07514
:100E8F0080FF75A0FF7F64FE120F02E4F580F5A0CE
:100E9F007590FF75B0FF120F020517E51770CA05A1
:040EAF001680C622C1
:090F45007F017E00120E6F80F79F
:03000000020CF3FC
:0C0CF300787FE4F6D8FD758145020D3ACB
:100CFF00020F45E493A3F8E493A34003F68001F2B7
:100D0F0008DFF48029E493A3F85407240CC8C333F5
:100D1F00C4540F4420C8834004F456800146F6DFC4
:100D2F00E4800B0102040810204080900F28E47E1D
:100D3F00019360BCA3FF543F30E509541FFEE493B9
:100D4F00A360010ECF54C025E060A840B8E493A380
:100D5F00FAE493A3F8E493A3C8C582C8CAC583CAAB
:100D6F00F0A3C8C582C8CAC583CADFE9DEE780BE63
:010F440000AC
:00000001FF
