:10035F002569002D00202020200020202020202093
:10036F00202020005345434F4E44004D494E5554D5
:10037F004520202000484F55522020200044415452
:10038F0045202020004D4F4E544820202000594535
:10039F00415220202000444159202020000000001D
:1003AF000000000000005F000000000700070000D1
:1003BF00147F147F1400242A7F2A12002313086449
:1003CF006200364955225000000503000000001C52
:1003DF00224100000041221C000014083E081400B6
:1003EF0008083E0808000050300000000808080800
:1003FF0008000060600000002010080402003E5159
:10040F0049453E0000427F4000004261514946008D
:10041F002141454B31001814127F100027454545E7
:10042F0039003C4A4949300001710905030036493A
:10043F0049493600064949291E000036360000009A
:10044F000056360000000814224100001414141442
:10045F00140000412214080002015109060032491C
:10046F0079413E007E1111117E007F4949493600C6
:10047F003E41414122007F4141221C007F494949B1
:10048F0041007F09090901003E4149497A007F086F
:10049F0008087F0000417F4100002040413F0100DC
:1004AF007F08142241007F40404040007F020C0231
:1004BF007F007F0408107F003E4141413E007F09CD
:1004CF00090906003E4151215E007F0919294600A6
:1004DF0046494949310001017F0101003F40404039
:1004EF003F001F2040201F003F4038403F00631453
:1004FF00081463000708700807006151494543005D
:10050F00007F414100000204081020000041417F9C
:10051F00000004020102040040404040400000017E
:10052F00020400002054545478007F48444438009B
:10053F00384444442000384444487F0038545454CD
:10054F001800087E090102000C5252523E007F082B
:10055F000404780000447D4000002040443D00002A
:10056F007F102844000000417F4000007C041804E5
:10057F0078007C08040478003844444438007C1424
:10058F0014140800081414187C007C0804040800D4
:10059F00485454542000043F444020003C40402025
:1005AF007C001C2040201C003C4030403C00442874
:1005BF00102844000C5050503C004464544C4400EC
:1005CF0000083641000000007F000000004136089F
:0D05DF00000010080810080078464146781A
:040DFD000211AA55E0
:040D3D007F967E001F
:100D4100E4FDFCC3ED9FEC9E5015E4FBFA0BBB00E8
:0F0D5100010AEB647E4A70F50DBD00010C80E4D1
:010D60002270
:100B4E00C294EF4E6004D2968002C296E4F513F57D
:100B5E0014ED5480FF3395E04F7004C2958002D29D
:100B6E0095C297D297ED25E0FD0514E514700205A8
:0C0B7E00136408451370DAB296C294228A
:040C33007D017F04BC
:100C3700AC05AB071C1BEC75F006A4FC540FFDE4D8
:100C4700FFFE120B4EECC454074410FDE4FF120BD9
:0C0C57004EEB540F44B0FDE4FF020B4EC6
:100B0600E4F517F518E51804FF7D01120C37E4F536
:100B16001BF51CE4FD7F01FE120B4E051CE51C7047
:100B260002051BC39482E51B6480948040E505188A
:100B3600E51870020517C39408E517648094804091
:080B4600C47D017F01020C37A0
:1009F300AB07AA06C3EB9420EA648094804054D3E7
:100A0300EB947FEA64809480504974E02BFB74FF7D
:100A13003AFAE4F519F51A9003AC75F006EB1208EF
:100A2300E6EA75F006A42583F583E582251AF582A7
:100A3300E5833519F583E493FD7F017E00120B4EA8
:100A4300051AE51A70020519C39406E51964809422
:040A53008040C422F9
:060C63007BFF7A037962B9
:100C69008B1D8A1E891FAB1DAA1EA91F12080C60A5
:100C790017051FE51F7002051E14F912080CFF3332
:090C890095E0FE1209F380DE2261
:100D85007DE2E4FFFE120B4E7F64120D417DAFE460
:0E0D9500FF120B4E7D2FE4FF120B4E020B06D9
:050D6100EF3395E0FEF8
:100D66007525FF75260375275F8E288F297B007AE8
:0F0D760000795012005F7B007A007950020C69FF
:100AB2008F588E578D568C55751500751618E5583A
:100AC2005401FFE4FEFDFC7B01FAF9F8C31208C2EF
:100AD2007004D2B68002C2B6AF58AE57AD56AC550E
:100AE20078011208D38F588E578D568C55C2B5D2C5
:100AF200B5E516151670021515E516451570BFC237
:040B0200B7D2B7228D
:090DEB00D2A0D2A1C2A1C2A02233
:090DF400D2A0C2A1D2A1D2A0221A
:100DBD00E4FEEF3392A1D2A0C2A0EF25E0FF0EBE5C
:060DCD0008F0D2A0C2A054
:010DD30022FD
:100DA300E4FFFED2A0A2A19209EF25E0FFA209E48D
:090DB300334207C2A00EBE08EA9B
:010DBC002214
:040C9200AB05AA07FD
:100C9600EBFF7E007C007D0A120837EB75F00A84B4
:100CA600C454F04DFB120DEB7FD0120DBDAF0212F6
:0A0CB6000DBDAF03120DBD020DF4D9
:020B8A00AD07B5
:100B8C00120DEB7FD0120DBDAF05120DBD120DEB8A
:100B9C007FD1120DBD120DA37E00120DF4AB07EE2A
:100BAC00C4F854F0C868FEEFC4540F48FF7C007DB5
:090BBC000A120825EB540F2FFF6B
:010BC500220D
:100BC6008E368F378C388D398B82AD37E4FF120C19
:100BD60092AD397F01120C92AD827F02120C92AD5A
:100BE6003D7F04120C92AD3F7F05120C92AD417F02
:0B0BF60006120C92AD437F03020C922C
:100CC0008E448F458C468D478A488B497F02120B94
:100CD0008A7548008F497F01120B8A7546008F473D
:0B0CE000E4FF120B8A7544008F4522D0
:100CEB008E4A8F4B8C4C8D4D8A4E8B4F7F04120B43
:100CFB008A754A008F4B7F05120B8A754C008F4DFE
:0B0D0B007F06120B8A754E008F4F22EE
:100C01007F04120B8A8F0A7F05120B8A8F0B7F06D6
:100C1100120B8A8F0C7F02120B8A8F0E7F01120B2F
:100C21008A8F09E4FF120B8A8F087F03120B8A8FC8
:020C31000D2292
:100A57007D017F01120C37AF0A120D61120C63AFD3
:100A67000B120D61120C63AF0C120D617BFF7A0341
:100A77007964120C697D017F02120C37AF0E120DDB
:100A870061120C63AF09120D61120C63AF08120DEE
:100A9700617BFF7A037964120C697D017F03120C75
:0B0AA70037AF0DEF3395E0FE020D6647
:1005EC0020800B0510E5107002050F120D3DAE0FAB
:1005FC00AF107C007D0812088CED4C7012120C337D
:10060C007BFF7A037969120C69120C01020808AE9F
:10061C000FAF107C007D0812088CED64014C703615
:10062C00120C337BFF7A037973120C6920810D0550
:10063C0008E508B43C03E4F508120D3D20820D15C5
:10064C0008E508B4FF0375083B120D3DAD08E4FF47
:10065C00120C92020808AE0FAF107C007D08120835
:10066C008CED64024C7036120C337BFF7A03797A72
:10067C00120C6920810D0509E509B43C03E4F50968
:10068C00120D3D20820D1509E509B4FF0375093BD8
:10069C00120D3DAD097F01120C92020808AE0FAF8E
:1006AC00107C007D0812088CED64034C7036120C23
:1006BC00337BFF7A037984120C6920810D050EE5DA
:1006CC000EB41803E4F50E120D3D20820D150EE547
:1006DC000EB4FF03750E17120D3DAD0E7F02120CFA
:1006EC0092020808AE0FAF107C007D0812088CED4A
:1006FC0064044C7036120C337BFF7A03798C120C29
:10070C006920810D050AE50AB42003E4F50A120DEF
:10071C003D20820D150AE50AB4FF03750A1F120D60
:10072C003DAD0A7F04120C92020808AE0FAF107C8C
:10073C00007D0812088CED64054C7036120C337B6E
:10074C00FF7A037994120C6920810D050BE50BB42B
:10075C000D03E4F50B120D3D20820D150BE50BB4CA
:10076C00FF03750B0C120D3DAD0B7F05120C9202A5
:10077C000808AE0FAF107C007D0812088CED6406E3
:10078C004C7035120C337BFF7A03799D120C692067
:10079C00810D050CE50CB46403E4F50C120D3D2041
:1007AC00820D150CE50CB4FF03750C63120D3DADF9
:1007BC000C7F06120C928044AE0FAF107C007D08AB
:1007CC0012088CED64074C7036120C337BFF7A03E5
:1007DC0079A5120C6920810D050DE50DB409037581
:1007EC000D02120D3D20820D150DE50DB4010375A2
:1007FC000D08120D3DAD0D7F03120C92120A5722FB
:100DD4007590FF7F337E227D117C00120AB27F90D2
:070DE4007E01120D4180ECBD
:030000000209678B
:0C096700787FE4F6D8FD7581580209AED7
:10080C00BB010689828A83E0225002E722BBFE02EA
:09081C00E32289828A83E493221D
:10082500EF8DF0A4A8F0CF8CF0A428CE8DF0A42EE7
:02083500FE22A1
:10083700BC000BBE0029EF8DF084FFADF022E4CCA5
:10084700F875F008EF2FFFEE33FEEC33FCEE9DEC6E
:10085700984005FCEE9DFE0FD5F0E9E4CEFD22EDB4
:10086700F8F5F0EE8420D21CFEADF075F008EF2FFE
:10087700FFED33FD4007985006D5F0F222C398FDEF
:050887000FD5F0EA228C
:10088C00C2D5EC30E709B2D5E4C39DFDE49CFCEE87
:10089C0030E715B2D5E4C39FFFE49EFE120837C3C0
:1008AC00E49DFDE49CFC800312083730D507C3E4BB
:0608BC009FFFE49EFE22F6
:1008C200EB9FF5F0EA9E42F0E99D42F0E89C45F08C
:0108D2002203
:1008D300E8600FECC313FCED13FDEE13FEEF13FF03
:0308E300D8F12227
:0C08E600A42582F582E5F03583F583221D
:10000300E5312425F8E605312278223007027825E8
:10001300E475F00112093102080C2000EB7F2ED2A7
:10002300008018EF540F2490D43440D4FF30040BD5
:10003300EF24BFB41A0050032461FFE532600215B8
:10004300320535E5357002053430070D7822E47545
:10005300F001120931EF02091F020D167403D207D2
:100063008003E4C207F5318B228A238924E4F53225
:10007300F534F535E53260077F2012003E80F575D3
:1000830033FFC201C200C202C203C205C206C208D4
:1000930012000CFF700D3007057F0012004FAF35C3
:1000A300AE3422B4255FC2D5C20412000CFF24D0A3
:1000B300B40A00501A75F00A783230D50508B6FF35
:1000C3000106C6A426F620D5047002D20380D924E3
:1000D300CFB41A00EF5004C2E5D20402024FD2019A
:1000E30080C6D20080C0D20280BCD2D580BAD205ED
:1000F30080B47F2012003E2002077401B532004015
:10010300F1120003FF12003E020077D208D20680EC
:1001130095120003FB120003FA120003F94A4B7015
:100123000679207A037BFF20022EE532602A7E00C7
:100133008E827583001208F260060EEE653370F04E
:10014300C2D5EBC0E0EAC0E0E9C0E0EE120296D00F
:10015300E0F9D0E0FAD0E0FB12080CFF60AAEBC094
:10016300E0EAC0E0E9C0E012003ED0E02401F9D0AB
:10017300E03400FAD0E0FBE5330460DCD533D9800A
:10018300877BFF7A027992D202809C791080027970
:1001930008C206C2088008D2D5790A8004790AC247
:1001A300D5E533047002F533E4FAFDFEFF120003D4
:1001B300FC7B08200113120003FD7B1030000A12A0
:1001C3000003FE120003FF7B20EC3382D592D5504F
:1001D30013C3E43000069FFFE49EFEE42001039D69
:1001E300FDE49CFCE4CBF8C201EC700CCFCECDCC8B
:1001F300E824F8F870F38017C3EF33FFEE33FEED16
:1002030033FDEC33FCEB33FB994002FB0FD8E9EBF6
:10021300300105F8D0E0C448B201C0E00AEC4D4E0D
:100223004F78207B0070C2EAB5330040BCC0E012B7
:100233000298D0F0D0E0200104C4C0E0C4B201C0F1
:10024300F0120027D0F0D5F0EB020077120941013C
:100253001453018E5800E54C00E14201924F019A7C
:0F02630044019A4900FA4301A0550184460184E1
:100272004501844703405000E92D00ED2E01102B6B
:1002820000F123010E2003292A00A94800000108D9
:100292003F3F3F00790AA2D5200314300509B91067
:1002A200020404B9080104A2D52006025001042068
:1002B20002689202B532005034C0E07F2030031948
:1002C2007F30A20272067205500F1202EFC202C202
:1002D20006C205C2087F30800F300503E9C0E01274
:1002E200003E300503D0E0F9D0E0B532CC3005173E
:1002F2007F30B9100C12003E7F583004077F78809F
:1003020003B9080312003E3002057F2D02003E7F32
:10031200202008F87F2B2006F322920280CF286E3D
:10032200756C6C2900D2011200033001F8C2017809
:100332003230D50108F60200A92D50434958120067
:10034200032403B405004001E490033B9312002F01
:0D035200743A12002FD20375320402018E9E
:10097300020DD4E493A3F8E493A34003F68001F2B9
:1009830008DFF48029E493A3F85407240CC8C33385
:10099300C4540F4420C8834004F456800146F6DF54
:1009A300E4800B0102040810204080900DFDE47EDA
:1009B300019360BCA3FF543F30E509541FFEE49349
:1009C300A360010ECF54C025E060A840B8E493A310
:1009D300FAE493A3F8E493A3C8C582C8CAC583CA3B
:1009E300F0A3C8C582C8CAC583CADFE9DEE780BEF3
:010E010000F0
:1008F200BB010CE58229F582E5833AF583E02250BB
:1009020006E92582F8E622BBFE06E92582F8E22204
:0D091200E58229F582E5833AF583E493221E
:10091F00BB010689828A83F0225002F722BBFE01B7
:02092F00F322B1
:10093100FAE6FB0808E6F925F0F618E6CA3AF622C7
:10094100D083D082F8E4937012740193700DA3A345
:1009510093F8740193F5828883E473740293686059
:06096100EFA3A3A380DF59
:100D1600EFB40A07740D120D21740A309811A899C0
:100D2600B8130CC2983098FDA899C298B811F6303D
:070D360099FDC299F5992215
:00000001FF
