:030000000202BE3B
:0C02BE00787FE4F6D8FD75814A02030544
:10050A000423070605040138010927000103070F20
:10051A001F3F7FFF0A3F3F065B4F666D7D077F6F78
:06058400E4F5807F01FE9A
:0B058A00EF1FAC0670011E4C70F62243
:0404E6007FC87E004D
:1004EA00E4FDFCC3ED9FEC9E5015E4FBFA0BBB0048
:0F04FA00010AEB647E4A70F50DBD00010C80E431
:0105090022CF
:09059500D2A0D2A1C2A1C2A02291
:09059E00D2A0C2A1D2A1D2A02278
:10054500E4FEEF3392A1D2A0C2A0EF25E0FF0EBEDC
:0605550008F0D2A0C2A0D4
:01055B00227D
:10052B00E4FFFED2A0A2A19200EF25E0FFA200E41F
:09053B00334207C2A00EBE08EA1B
:010544002294
:04049000AB05AA0707
:10049400EBFF7E007C007D0A12037EEB75F00A847C
:1004A400C454F04DFB1205957FD0120545AF0212DE
:0A04B4000545AF0312054502059E41
:02042000AD0726
:100422001205957FD0120545AF05120545120595B7
:100432007FD112054512052B7E0012059EAB07EEF9
:10044200C4F854F0C868FEEFC4540F48FF7C007D26
:090452000A12036CEB540F2FFF9A
:01045B00227E
:10045C008E088F098C0A8D0B8B82AD09E4FF120478
:10046C0090AD0B7F01120490AD827F02120490AD0F
:10047C000F7F04120490AD117F05120490AD137F11
:04048C0006020490D0
:1004BE00E4FF1204208F367F011204208F3E7F024C
:1004CE001204208F3DE53675F00212034AAFF0EFAD
:0804DE006003D2A322C2A32295
:10055C007F041204208F377F051204208F217F0621
:06056C001204208F3C2266
:10022400AB07EB75F00A12034AF522EB75F00A12DC
:10023400034A85F039ED75F00A12034AF533ED757A
:10024400F00A12034A85F032C2A7743F2532F8E659
:10025400F580ED646360077F647E0012058AD2A78F
:10026400120584C2A6743F2533F8E6F580ED646375
:1002740060077F647E0012058AD2A6120584C2A597
:10028400743F2539F8E6F580EB646360077F647E8C
:100294000012058AD2A5120584C2A4743F2522F84F
:1002A400E6F580EB646360077F647E0012058AD202
:0A02B400A4E4F5807F01FE02058A34
:10017100E4FF120420EF04F53675F00812034AFF7C
:100181003395E0FEEF2401F531E43EF530E53675B7
:10019100F00812034AAFF0EF3395E0F53A8F3BE4F4
:1001A100F534F535C374079535FF7401A807088048
:1001B10002C333D8FCF45290E53124FFFFE530341B
:1001C100FFFEC3E5359FEE6480F8E5346480985006
:1001D100057580FF801CD3E5359FEE6480F8E5341A
:1001E1006480984005E4F58080087427253BF8E693
:1001F100F5807F647E0012058AC374079535FF740C
:1002010001A807088002C333D8FC42901205840577
:1002110035E53570020534C39408E5346480948073
:03022100408222F6
:1003D300E4F549F54A1204BEAD3EAF3D12022412C4
:1003E3000171054AE54A70020549C394D0E54964A1
:1003F30080948740E012055CE4F549F54AC2A3AD59
:1004030021AF37120224120171054AE54A70020531
:0D04130049C394E8E5496480948340E122E8
:10057200E4F5807590FFD2B1D2B075A8811203D391
:0205820080FBFC
:03000300020006F2
:10000600C0E0C0F0C083C082C0D075D000C000C0C0
:1000160001C002C003C004C005C006C0077590FF3A
:1000260075380130B203020156AF36EF3395E0FE64
:10003600AD3EED3395E0FCAB3DEB3395E0FAE537AD
:10004600F5823395E0F50E85820FE521F58233952D
:10005600E0F510858211E53CF5823395E0F51285D1
:10006600821312045C20B01505387F2C7E01120421
:10007600EAD3E538648094874003753801E538246F
:10008600FE603714605814607914700302012C1452
:1000960070030201502405708A7D63AF3D1202246D
:1000A60020B180053D1204E6D3E53D648094975067
:1000B60003020029753D00020029AD3E7F6312024E
:1000C6002430B103020029053E1204E6D3E53E645E
:1000D6008094BB5003020029753E000200297D630F
:1000E600AF3712022430B10302002905371204E6A5
:1000F600D3E53764809497500302002975370002D0
:100106000029AD217F6312022430B10302002905C4
:10011600211204E6D3E5216480948C500302002961
:10012600752100020029AD3C7F1412022430B10370
:10013600020029053C1204E6D3E53C648094945001
:1001460003020029753C10020029753601020029B8
:10015600D007D006D005D004D003D002D001D000FD
:0B016600D0D0D082D083D0F0D0E032A7
:1002CA00020572E493A3F8E493A34003F68001F2D3
:1002DA0008DFF48029E493A3F85407240CC8C33335
:1002EA00C4540F4420C8834004F456800146F6DF04
:1002FA00E4800B010204081020408090050AE47E85
:10030A00019360BCA3FF543F30E509541FFEE493F8
:10031A00A360010ECF54C025E060A840B8E493A3BF
:10032A00FAE493A3F8E493A3C8C582C8CAC583CAEA
:10033A00F0A3C8C582C8CAC583CADFE9DEE780BEA2
:01052A0000D0
:10034A00C2D530F707B2D563F0FF05F030E70CB23B
:10035A00D5F4048463F0FF05F080018430D502F4FB
:02036A0004226B
:10036C00EF8DF0A4A8F0CF8CF0A428CE8DF0A42EA5
:02037C00FE225F
:10037E00BC000BBE0029EF8DF084FFADF022E4CC63
:10038E00F875F008EF2FFFEE33FEEC33FCEE9DEC2C
:10039E00984005FCEE9DFE0FD5F0E9E4CEFD22ED72
:1003AE00F8F5F0EE8420D21CFEADF075F008EF2FBC
:1003BE00FFED33FD4007985006D5F0F222C398FDAD
:0503CE000FD5F0EA224A
:00000001FF
