:100282001008FFFA965A1E0F0C080604040101001A
:0502920000000118004E
:080241007D1E7F3C7C007E0065
:10024900AB05AA048F828E83E5821582AE83700284
:0502590015834E602337
:10025E007C007D07AF03AE02120298EF2401F52158
:10026E00E43EF520E5211521AE20700215204E60EA
:03027E00D280F13A
:01028100225A
:03000B0002000EE2
:10000E00C0E0C0D0C28DC28CE518C395084004C2B2
:10001E00808002D280E518C395094004C281800217
:10002E00D281E518C3950A4004C2828002D282E5CD
:10003E0018C3950B4004C2838002D283E518C39582
:10004E000C4004C2848002D284E518C3950D40048E
:10005E00C2858002D285E518C3950E4004C2868003
:10006E0002D286E518C3950F4004C2878002D2875C
:10007E00E518C395104004C2A78002D2A7E518C3A5
:10008E0095114004C2A68002D2A6E518C39512406F
:10009E0004C2A58002D2A5E518C395134004C2A4DC
:1000AE008002D2A4E518C395144004C2A38002D2E4
:1000BE00A3E518C395154004C2A28002D2A2E5188A
:1000CE00C395164004C2A18002D2A1E518C39517AC
:1000DE004004C2A08002D2A00518D28CD0D0D0E0AD
:0100EE0032DF
:1000EF00758CB4758AB4758902D2AFD2A9D28C75CA
:1000FF001C00751D017D0A7F0F120245E4F518855E
:10010F00171985161785151685141585131485125D
:10011F0013851112851011850F10850E0F850D0E89
:10012F00850C0D850B0C850A0B85090A8508098539
:10013F001908051DE51D7002051CC394F4E51C94F8
:10014F000140B2C28C751E00751F01C3E51F9414C8
:10015F00E51E9400508AC280C281C282C283C284CB
:10016F00C285C286C287C2A7C2A6C2A5C2A4C2A3A5
:10017F00C2A2C2A1C2A0120241D280D281D282D227
:10018F0083D284D285D286D287D2A7D2A6D2A5D245
:10019F00A4D2A3D2A2D2A1D2A0120241051FE51F61
:0601AF0070A9051E80A5E9
:030000000201B545
:0C01B500787FE4F6D8FD7581210201FC82
:10029800EF8DF0A4A8F0CF8CF0A428CE8DF0A42E7A
:0202A800FE2234
:1001C1000200EFE493A3F8E493A34003F68001F265
:1001D10008DFF48029E493A3F85407240CC8C3333F
:1001E100C4540F4420C8834004F456800146F6DF0E
:1001F100E4800B0102040810204080900282E47E1A
:10020100019360BCA3FF543F30E509541FFEE49302
:10021100A360010ECF54C025E060A840B8E493A3C9
:10022100FAE493A3F8E493A3C8C582C8CAC583CAF4
:10023100F0A3C8C582C8CAC583CADFE9DEE780BEAC
:010297000066
:00000001FF
