:071A79002569002D000D009E
:10000300E4FDFCC3ED9FEC9E5015E4FBFA0BBB0033
:0F001300010AEB647E4A70F50DBD00010C80E41C
:0100220022BB
:101A4800758921759850758BF3758DF3D28ED2AC4C
:031A5800D2AF22E8
:0618EA007BFF7A1A797CF5
:0618F0008B288A29892AD9
:1018F600121A33E4FEEEC39F5018AB28AA29A92A70
:101906008E82758300120D46F5993099FDC2990EA7
:0219160080E36C
:0119180022AC
:030023000219C4FB
:0719C400C0E0C0D030981113
:1019CB00859922E522B43102D2A0E522B43002C2BD
:0119DB00A06B
:0719DC00C298D0D0D0E03228
:1019E300752BFF752C1A752D798E2E8F2F7B007A10
:0F19F300007923120EE27B007A0079230218F0AC
:091A6700D2A0D2A1C2A1C2A022AA
:091A7000D2A0C2A1D2A1D2A02291
:101A1C00E4FEEF3392A1D2A0C2A0EF25E0FF0EBEF0
:061A2C0008F0D2A0C2A0E8
:011A32002291
:101A0200E4FFFED2A0A2A19200EF25E0FFA200E433
:091A1200334207C2A00EBE08EA2F
:011A1B0022A8
:04191900AB05AA0769
:10191D00EBFF7E007C007D0A120D97EB75F00A84BB
:10192D00C454F04DFB121A677FD0121A1CAF02126D
:0A193D001A1CAF03121A1C021A70E4
:02184100AD07F1
:10184300121A677FD0121A1CAF05121A1C121A67DC
:101853007FD1121A1C121A027E00121A70AB07EE05
:10186300C4F854F0C868FEEFC4540F48FF7C007DF1
:091873000A120D85EB540F2FFF42
:01187C002249
:1018B6008E238F248C258D268B82AD24E4FF12196E
:1018C60019AD267F01121919AD827F02121919ADC1
:1018D6002A7F04121919AD2C7F05121919AD2E7F16
:0418E60006021919C4
:101947008E5C8F5D8C5E8D5F8A608B617F02121863
:10195700417560008F617F01121841755E008F5FCE
:0B196700E4FF121841755C008F5D2248
:101972008E628F638C648D658A668B677F04121812
:10198200417562008F637F051218417564008F658F
:0B1992007F061218417566008F672267
:0A002600FFE556355AFEAD55AC5407
:080030008E088F098C0A8D0B6C
:10003800AC08AD09EC120A847B337A9B799A784430
:100048001209E2120ABD8E0C8F0DAC0CAD0D120D0B
:10005800858E0E8F0F120D858E108F11E4F512F517
:1000680013AC08AD09EC120A847BA57A3E79EC78CA
:10007800411208D97BB37A667913784A1207E8C027
:1000880004C005C006C007AC0EAD0FEC120A847B95
:10009800657A0B79F778381208D9D003D002D001E5
:1000A800D0001207E8C004C005C006C007AC10ADF8
:1000B80011EC120A847B137A6E792678341208D9E7
:1000C800A804A905AA06AB07D007D006D005D00416
:1000D8001207E4120ABD8E148F15AC0CAD0DEC128C
:1000E8000A847BB87ADE790478431208D97B5C7A73
:1000F8008F792678431207E8C004C005C006C007F8
:10010800AC0EAD0FEC120A847B5A7A4A7916783C09
:100118001208D9A804A905AA06AB07D007D006D0AB
:1001280005D0041207E4C004C005C006C007AC121D
:10013800AD13EC120A84D003D002D001D00012080B
:10014800D91216587BDA7A0379AD78391208D9C0F2
:1001580004C005C006C007AC14AD15EC120A84D063
:1001680003D002D001D0001207E8120ABD8E148F06
:1001780015AC08AD09EC120A847BC57AD779E87802
:10018800411208D97BB37A9C79B378431207E8C047
:1001980004C005C006C007AC0EAD0FEC120A847B84
:1001A8009A7AAB790B78381208D9A804A905AA0657
:1001B800AB07D007D006D005D0041207E4C004C0AE
:1001C80005C006C007AC10AD11EC120A847B257A75
:1001D800DE796878361208D9A804A905AA06AB07FB
:1001E800D007D006D005D0041207E4120ABD8E1637
:1001F8008F17AC08AD09EC120A847B917AE879C0B4
:1002080078431208D97B3D7A03799978431207E835
:10021800C004C005C006C007AC0EAD0FEC120A84BE
:100228007B667ACF792F783C1208D9D003D002D0D8
:1002380001D0001207E8C004C005C006C007AC1012
:10024800AD11EC120A847BCC7A5D794F78371208AD
:10025800D9D003D002D001D0001207E8120ABD8E0F
:10026800188F19AC08AD09EC120A847BD37A55793A
:10027800C378431208D97B077A5F79AA78411207B5
:10028800E8C004C005C006C007AC0EAD0FEC120AEA
:10029800847BC47AA279D8783A1208D9A804A90527
:1002A800AA06AB07D007D006D005D0041207E4C0D1
:1002B80004C005C006C007AC10AD11EC120A847B5F
:1002C800E37A63792078361208D9A804A905AA0622
:1002D800AB07D007D006D005D0041207E4120ABD38
:1002E8008E1A8F1BAC12AD13AE16AF17120D85AC5C
:1002F80006AD07EC120A84121658C004C005C006E1
:10030800C007AC0CAD0DEC120A847B917A0B79CE48
:1003180078391208D9A804A905AA06AB077FC57EB3
:100328008F7D317C3E1207E4D003D002D001D0008B
:100338001208D9C004C005C006C007E51325E0FFB0
:10034800E51233FEAC16AD17120D85AC06AD07EC01
:10035800120A841216587B277AA07909783B12086A
:10036800D9D003D002D001D0001207E8120ABD8EFE
:100378001C8F1DAC12AD13AE18AF19120D85AC064B
:10038800AD07EC120A841216587B177A4879D07890
:100398003E1208D9C004C005C006C007AC1CAD1D7C
:1003A800EC120A84D003D002D001D0001207E4C0B6
:1003B80004C005C006C007E51325E0FFE51233FEBB
:1003C800AC18AD19120D85AC06AD07EC120A8412F3
:1003D80016587B267AE47983783C1208D9D003D062
:1003E80002D001D0001207E8120ABD8E1C8F1DAE84
:1003F80012AF137C007D03120D85AC18AD19120DD8
:1004080085AC06AD07EC120A841216587B177AB72A
:1004180079D178391208D9C004C005C006C007AC24
:100428001CAD1DEC120A84D003D002D001D00012FA
:1004380007E4120ABD8E1C8F1DE51325E0FFE512A7
:1004480033FEAC1AAD1B120D85AC06AD07EC120AD3
:10045800841216587BC37A64792A783C1208D9C06A
:1004680004C005C006C007AC1CAD1DEC120A84D040
:1004780003D002D001D0001207E8C004C005C006AE
:10048800C007E5172519FFE5163518FEAC12AD13A0
:10049800120D85AC06AD07EC120A841216587BE7DC
:1004A8007A1D79A7783B1208D9A804A905AA06AB32
:1004B80007D007D006D005D0041207E4120ABD8E73
:1004C8001C8F1DC3E5179519FFE5169518FEAC128C
:1004D800AD13120D85AC06AD07EC120A841216583E
:1004E8007BB37A7B79F2783B1208D9C004C005C087
:1004F80006C007AC1CAD1DEC120A84D003D002D094
:1005080001D0001207E4C004C005C006C007E51BFF
:1005180025E0FFE51A33FEE5172FFFE5163EFEAC92
:1005280012AD13120D85AC06AD07EC120A84121633
:10053800587B177AB779D178391208D9D003D00205
:10054800D001D0001207E8120ABD8E1C8F1DE51BD2
:1005580025E0FFE51A33FEC3EF9517FFEE9516FE6B
:10056800AC12AD13120D85AC06AD07EC120A84125D
:1005780016587B177AB779D178391208D9C004C0D0
:1005880005C006C007AC1CAD1DEC120A84D003D010
:1005980002D001D0001207E4C004C005C006C0079D
:1005A800E51B25E0FFE51A33FEE5192FFFE5183EA8
:1005B800FEAC12AD13120D85AC06AD07EC120A8421
:1005C8001216587B527A49791D783A1208D9A8042C
:1005D800A905AA06AB07D007D006D005D004120794
:1005E800E4120ABD8E1C8F1DE51B25E0FFE51A33BA
:1005F800FEC3EF9519FFEE9518FEAC12AD13120D60
:1006080085AC06AD07EC120A841216587B6F7A1275
:100618007983783A1208D9C004C005C006C007AC6F
:100628001CAD1DEC120A84D003D002D001D00012F8
:1006380007E8C004C005C006C007E51925E0FFE5C6
:100648001833FEE5172FFFE5163EFEAC12AD131268
:100658000D85AC06AD07EC120A841216587B6F7A2A
:10066800127903783A1208D9D003D002D001D00009
:100678001207E8120ABD8E1C8F1DC3E50D94F5E51F
:100688000C6480947FAC0CAD0DEC400302074F1254
:100698000A847B567AF0795B783A1208D97B6F7AAC
:1006A800127983783A1207E8C004C005C006C0076B
:1006B800AC0EAD0FEC120A847B427A15796D78394D
:1006C8001208D9D003D002D001D0001207E8C00424
:1006D800C005C006C007AC10AD11EC120A847B79C6
:1006E8007AC4790D78371208D9A804A905AA06ABE7
:1006F80007D007D006D005D0041207E4C004C0050F
:10070800C006C007AC0CAD0DEC120A847B397AF236
:1007180079AD78331208D9C004C005C006C007AC4B
:1007280010AD11EC120A84D003D002D001D000120F
:1007380008D9A804A905AA06AB07D007D006D00592
:10074800D0041207E4803F120A847BB37AEF798AD7
:1007580078391208D97B877AC0799178B91207E875
:10076800C004C005C006C007AC0EAD0FEC120A8469
:100778007B0B7A5D798978391208D9D003D002D0F9
:1007880001D0001207E8120ABD8E1E8F1FE515253D
:100798001DFFE514351CFEC3EF951FFFEE951EFEE9
:1007A800AD07FC120A84E4FBFAF9783F1207E8C0A7
:1007B80004C005C006C007AE0AAF0B7C007D181246
:1007C8000DECAC06AD07EC120A84D003D002D001C0
:0807D800D0001207E8120ABD6F
:0107E00022F6
:0412F5008C448D4553
:1012F900AD07AC06EC120A847B667AA1791578CA27
:101309001207E8C004C005C006C007AE44AF457C5B
:10131900007D18120DECAC06AD07EC120A84A80486
:10132900A905AA06AB07D007D006D005D004120735
:10133900E47B007AAD790E78471209E2120ABD8E74
:10134900468F47AC46AD47120D858E488F49E4F567
:101359004AF54BEC120A847B0D7A9F790C78471277
:1013690008D97BBA7AC379B278431207E8C004C0B6
:1013790005C006C007AC48AD49EC120A847B167A51
:1013890079792378391208D9A804A905AA06AB07DF
:10139900D007D006D005D0041207E4C004C005C0A8
:1013A90006C007AC46AD47EC120A847B597AD97955
:1013B9000078351208D9C004C005C006C007AC487A
:1013C900AD49EC120A84D003D002D001D000120832
:1013D900D9A804A905AA06AB07D007D006D005D01D
:1013E900041207E4120ABD8E4C8F4DAC46AD47EC92
:1013F900120A847BC57AA0790C78471208D97BB583
:101409007A3B798C78431207E8C004C005C006C04E
:1014190007AC48AD49EC120A847BD17AF6799E78FB
:10142900391208D9D003D002D001D0001207E8122E
:101439000ABD8E4E8F4FAC4CAD4DAE4AAF4B120D1F
:1014490085AC06AD07EC120A84121658C004C00513
:10145900C006C007AC46AD47EC120A847BED7AD7CB
:10146900799D783B1208D9A804A905AA06AB077F7C
:101479009D7E117DF57C3F1207E4C004C005C006BE
:10148900C007AC48AD49EC120A847B8B7AE1796AD2
:1014990078371208D9A804A905AA06AB07D007D03E
:1014A90006D005D0041207E4D003D002D001D00041
:1014B9001208D9120ABD8E508F51E54B25E0FFE580
:1014C9004A33FEAC4CAD4D120D85AC06AD07EC129E
:1014D9000A84121658C004C005C006C007AC46AD40
:1014E90047EC120A847BF67ACF79D378381208D977
:1014F900A804A905AA06AB077F5C7EC87DA37C3C2E
:101509001207E4D003D002D001D0001208D9C004D8
:10151900C005C006C007AC50AD51EC120A84D00317
:10152900D002D001D0001207E8C004C005C006C02F
:1015390007AE4AAF4B7C007D03120D85AC4CAD4D17
:10154900120D85AC06AD07EC120A841216587B24DD
:101559007A0B799878391208D9D003D002D001D002
:10156900001207E8120ABD8E508F51E54F2551F53B
:1015790053E54E3550F552FEAF53AC4AAD4B120D03
:10158900858E528F53AC52AD53EC120A847BF97A93
:101599000F79C978401209E2120ABDAD07AC06EC11
:1015A900120A847BF97A0F79C978401208D9C004E4
:1015B900C005C006C007AC52AD53EC120A84D00373
:1015C900D002D001D0001207E4120ABD8E528F5307
:1015D900AC52AD53EC120A847BF97A0F7949784001
:1015E9001209E2E4FBFA79C078401208D9120ABD5F
:0115F90022CF
:041768008C548D55BB
:10176C00AD07AC06EC120A847BB47A66791378CA9E
:10177C001207E87BA57A3E79EC78411209E2E4FB8A
:10178C00FAF9783F1207E8120ABD8E568F57E4F526
:10179C0058F559F55A755B01E557255B120026ADD6
:1017AC0055AC541212F5EF3395E0FE8E588F590557
:1017BC005BE55B7002055A2557120026AD55AC54FB
:1017CC001212F5EF3395E0FEEF65597003EE655894
:1017DC00600DC3E55B940EE55A6480948040CCE5C3
:0917EC005B24FFFFE55A34FFFE07
:0117F50022D1
:1017F6007F041218417E001219E31218EA7F0512BF
:1018060018417E001219E31218EA7F061218417E6B
:10181600001219E31218EA7F021218417E0012190B
:10182600E31218EA7F011218417E001219E312181A
:0B183600EAE4FF1218417E000219E3F3
:10187D00121A48752900752A04752B00752C0575EB
:10188D002D00752E067B037A007D027C007F017E84
:10189D00001218B61217F67BFF7A1A797E1218F01D
:0918AD007F0B7E0012000380EBAA
:1007E100020B29E86480F8E933E83360110460F012
:1007F100ED33EC337009E8FCE9FDEAFEEBFF22047E
:1008010060DED3EB9FEA9EE99DE8C2E78CF0C2F778
:1008110095F0400CE8CCF8E9CDF9EACEFAEBCFFB44
:10082100120AF485D0F05804700320D5B3E804709F
:10083100075002B2D5020B3392D5EC0460F7E4CC39
:10084100C0E0C398F8603B94186008400DD0E0FB0D
:10085100020B0BE4FBFAC9FC8028E830E406E4C98A
:10086100FBE4CAFCE830E305E4C9CACBFCE8540761
:100871006010F8C3E913F9EA13FAEB13FBEC13FC6C
:10088100D8F130F52FC3E49CFCEF9BFFEE9AFEED0F
:1008910099FDD0E0FBEF4E4D4C701222DB03020BB1
:1008A10030EC2CFCEF33FFEE33FEED33FDED30E7A2
:1008B100EB020B0BEF2BFFEE3AFEED39FDD0E0FB27
:1008C10050130BBB0003020B33ED13FDEE13FEEFD0
:0808D10013FFEC13FC020B0BFA
:1008D900EC4D6011E8497017ED33EC3304600DE419
:1008E900FCFFFEFD22E933E8330470F8020B2912FC
:1008F9000AF458046009E4CC2481500628500902FE
:100909000B33284003020B30C0E0EB4A7044B98036
:1009190006D0E0FB020B1FEF4E701CBD8008EBFFF9
:10092900EAFEE9FD80EBE98DF0A4FEE5F00209C2DB
:10093900E9CDF9EAFEEBFFEF89F0A4FCE5F0CE89F9
:10094900F0A42EFFE435F0CD89F0A42DFEE435F0B6
:100959008067EF4E7005BD80D780C3EF8BF0A4ACE4
:10096900F0EE8BF0A42CFCE435F0F8EF8AF0A42C1F
:10097900E5F038FCE433CB8DF0A42CFCE5F03BF832
:10098900EE8AF0A42CFCE5F038F8E433CF89F0A422
:100999002CFCE5F038CF3400CE89F0A42FFFE5F028
:1009A9003EFEE433C98DF0A42EFEE5F039CD8AF080
:1009B900A42FFFE5F03EFEE43DFD33D0E0FB5007F8
:1009C9000BBB000F020B33EC2CFCEF33FFEE33FEB5
:0609D900ED33FD020B0BE3
:1009DF00020B33EC5D046005E859047003020B2928
:1009EF00120AF4580460F6EC4860F2EC7004FDFE55
:1009FF00FF22C860DB2481C85009C39860025006EB
:100A0F00020B309850CAF582E9294B4A7005AB8228
:100A1F00020B1F75F0007C1A7880C3EF9BEE9AEDE6
:100A2F0099400DC3EF9BFFEE9AFEED99FDE842F062
:100A3F00DC23ACF0D0E0FFD0E0FED0E0FDAB8220B5
:100A4F00E7101BEB60BAEC2CFCEF33FFEE33FEED3F
:100A5F0033FD020B0BE803F830E705C0F075F0002B
:100A6F00EF2FFFEE33FEED33FD40B830E7C280AA23
:100A7F0075F020800E75F010800575F0087D007EF2
:100A8F00007F003392D530D503120E22EC33401085
:100A9F00EF33FFEE33FEED33FDEC33FCD5F0ED22FB
:0E0AAF00E5F0247EA2D513CC92E7CDCEFF2237
:100ABD00EDD2E7CD33EC3392D524814006E4FFFE31
:100ACD00FDFC22FCE4CFCECDCC24E0501174FF8090
:100ADD00EDC3CC13CCCD13CDCE13CECF13CF04702D
:070AED00F030D5DE020E22FD
:100E8600E53F242BF8E6053F227828300702782B29
:100E9600E475F001120E50020D2D2000EB7F2ED2CC
:100EA600008018EF540F2490D43440D4FF30040B44
:100EB600EF24BFB41A0050032461FFE54060021519
:100EC600400543E5437002054230070D7828E47576
:100ED600F001120E50EF020D7302199D7403D20732
:100EE6008003E4C207F53F8B288A29892AE4F54066
:100EF600F542F543E54060077F20120EC180F57587
:100F060041FFC201C200C202C203C205C206C20834
:100F1600120E8FFF700D3007057F00120ED2AF4301
:100F2600AE4222B4255FC2D5C204120E8FFF24D072
:100F3600B40A00501A75F00A784030D50508B6FF95
:100F46000106C6A426F620D5047002D20380D92451
:100F5600CFB41A00EF5004C2E5D2040211BFD20189
:100F660080C6D20080C0D20280BCD2D580BAD2055B
:100F760080B47F20120EC12002077401B5400040E4
:100F8600F1120E86FF120EC1020EFAD208D20680A8
:100F960095120E86FB120E86FA120E86F94A4B70D1
:100FA6000679B67A127BFF20022EE540602A7E0083
:100FB6008E82758300120D4660060EEE654170F056
:100FC600C2D5EBC0E0EAC0E0E9C0E0EE12121FD0E5
:100FD600E0F9D0E0FAD0E0FB120D2DFF60AAEBC0DD
:100FE600E0EAC0E0E9C0E0120EC1D0E02401F9D089
:100FF600E03400FAD0E0FBE5410460DCD541D9805D
:1010060087D20280A212120260F7E5417001041233
:101016000B3EA941600DE541600914F5411212A984
:10102600EF60F3EA30E702F404C3995077EAF42557
:10103600410430E701E404F541800D12120260C15B
:10104600EA05412541120B3EEA783EF630E701E417
:10105600254104D541042005011412121FE4C0E005
:101066001212A9783EE6601320E70714F6120EA9BD
:10107600802204F6D0E014C0E07F00120EA9E541FC
:101086006007120EA01541800B300503120EA0D08A
:10109600E0020EFAD0E00480C512120260A0E5411B
:1010A60004120B3E783EEAF6E54120050260010493
:0510B600240412121FCA
:1010BB0074FF04C0E01212A9120EA9E5412005022B
:1010CB006003120EA0D0E0B541E87F45120EB37855
:1010DB003EE67F2B30E7047F2DF404C0E0120EC1F7
:1010EB00D0E075F00A84C0F0120EAAD0E0120EAA5E
:1010FB00020EFA791080027908C206C2088008D263
:10110B00D5790A8004790AC2D5E541047002F5410C
:10111B00E4FAFDFEFF120E86FC7B08200113120E73
:10112B0086FD7B1030000A120E86FE120E86FF7BA8
:10113B0020EC3382D592D55013C3E43000069FFFC9
:10114B00E49EFEE42001039DFDE49CFCE4CBF8C28D
:10115B0001EC700CCFCECDCCE824F8F870F38017EF
:10116B00C3EF33FFEE33FEED33FDEC33FCEB33FB20
:10117B00994002FB0FD8E9EB300105F8D0E0C448E9
:10118B00B201C0E00AEC4D4E4F78207B0070C2EAF2
:10119B00B5410040BCC0E0121221D0F0D0E02001DC
:1011AB0004C4C0E0C4B201C0F0120EAAD0F0D5F056
:1011BB00EB020EFA120E600F975310FE580F684C8D
:1011CB000F644211024F110A44110A490F7D43115A
:1011DB001055104146109F45100B4712D6500F6CFF
:1011EB002D0F702E0F932B0F74230F912012BF2AEC
:1011FB000F2C4800000F8BE541B4FF03754106121D
:10120B000E86FC120E86FD120E86FE120E86FF78DF
:10121B0037020B6D790AA2D5200314300509B910DA
:10122B00020404B9080104A2D520060250010420CF
:10123B0002689202B540005034C0E07F20300319A1
:10124B007F30A20272067205500F121278C202C2D0
:10125B0006C205C2087F30800F300503E9C0E012DB
:10126B000EC1300503D0E0F9D0E0B540CC30051706
:10127B007F30B9100C120EC17F583004077F788075
:10128B0003B90803120EC13002057F2D020EC17F78
:10129B00202008F87F2B2006F322920280CF7F00BC
:1012AB00B4070050052437F8E6FF22286E756C6CE6
:1012BB002900D201120E863001F8C201784030D5D8
:1012CB000108F6020F2C2D50434958120E862403A9
:1012DB00B405004001E49012D193120EB2743A128D
:0A12EB000EB2D2037540040210FE9B
:1015FA003A70FA83BCAAE9E43E81E0F8BF9DE9E6C5
:10160A003F80000039283C1ABB9969663DA335E33F
:10161A00BF255DE73FC90FDB418DDBCCC44936EE00
:10162A0045C9913FC5B0F83D3F800000C317F53466
:10163A00452FFA73C60AFDDD1216E904A2E19209E2
:10164A001420E0159015FA7404120C7080261216F4
:10165A00E930E102B20920E0EB8C688D698E6A8F6D
:10166A006B90160E7404120C70A868A969AA6AAB6A
:10167A006B1208D9ED4C6007300904EC6480FC2237
:10168A001216E9C0E08C688D698E6A8F6B901632EB
:10169A007403120C70A868A969AA6AAB6B1208D9FC
:1016AA00ECC568FCEDC569FDEEC56AFEEFC56BFFCA
:1016BA009016227403120C70D082A868A969AA6ACB
:1016CA00AB6BE58230E0071209E2B20980A6EFCBE4
:1016DA00FFEECAFEEDC9FDECC8FC1209E28095EDE9
:1016EA0033EC547FCC33920924605007D0E0D0E029
:1016FA00020B297B837AF97922783E1208D9EDF90F
:10170A0033ECF83324815011EFFBEEFA120ABD12C2
:10171A000A7FECB2E7FC1207E8ED33EC33602F24C2
:10172A0003F8C313FCED92E7FDE82481E4501FECB3
:10173A00F8EDF9EEFAEFFB120ABDEF04C2E0FCF590
:10174A0082120A89ECB2E7FC1207E8E58203FAED95
:0E175A0033EC3360071413FCED92E7FDEA2236
:100AF400E9D2E7C933E833F892D5EDD2E7CD33EC48
:070B040033FC5002B2D522C0
:100B0B00EC30E7100FBF000C0EBE00080DBD00044B
:100B1B000BEB6014A2D5EB13FCED92E7FD2274FFF7
:100B2B00FCFDFEFF22E480F8A2D574FF13FC7D8050
:030B3B00E480EF64
:100B3E00F920E72824F950037907E4F42402FB187E
:100B4E00DBFDE624FB5014E9600DE4F618E604F62E
:0F0B5E00B40A08E4F6D9F57401F60A22C2D522CA
:100B6D00ED33EC3392D5FA602AB4FF33EDC2E77B57
:100B7D00FF60067A0B7992E4227A0B799B20D504DB
:100B8D007A0B7996224E614E002B494E46002D4927
:100B9D004E4600E47A08F608DAFC7B00740722E87A
:100BAD00C0E0ECC0E0EDC0E0EEC0E0EFC0E0EA7503
:100BBD00F010A4CAABF075F04DA42BFBE435F0FC9E
:100BCD00EA2410FAEB34C5FBEC34D9FCEDC2E7FF97
:100BDD0075F056A4F42411C5F0F434C58FF0A42A91
:100BED00E5F03BE43CF620E714120CEDD0E0FFD02D
:100BFD00E0FED0E0FDD0E0FC1209E28014F4041216
:100C0D000CEDD0E0FFD0E0FED0E0FDD0E0FC12080E
:100C1D00D9D0E0F8E6FAEDD2E7CD33EC332482FB00
:100C2D00E4C3CF33CFCE33CECD33CD33DBF37B0720
:100C3D0075F00A846004F6081B0AE5F0F6088FF0DB
:100C4D00740AA4FFACF08EF0740AA42CFEACF05024
:100C5D00010C8DF0740AA42CFDE435F0F608DBDEF2
:030C6D00740722E7
:100C7000C0E0EFFBEEFAEDF9ECF81208D9D0E0F5A0
:100C8000F0EFFBEEFAEDF9ECF8120E30A3A3A3A3FC
:100C9000E8C0E0E9C0E0EAC0E0EBC0E0C0F0120864
:100CA000D9120E40A3A3A3A31207E8D0F0D0E0FB13
:0D0CB000D0E0FAD0E0F9D0E0F8D5F0D42281
:100CBD003F8000004120000042C80000447A00003F
:100CCD00461C400047C35000497424004B189680C1
:100CDD004CBEBC205A0E1BCA6753C21C749DC5AEB8
:100CED00FB60065407601C2323120D1BEB54386068
:100CFD0009120D07120D161208D9ECF8EDF9EEFADE
:100D0D00EFCB22EB120D1680F1543803241C900CFE
:100D1D00BDFE93FC0EEE93FD0EEE930ECE93FF22D1
:03000000021A5B86
:0C1A5B00787FE4F6D8FD75816B02187DE1
:100D2D00BB010689828A83E0225002E722BBFE02C4
:090D3D00E32289828A83E49322F7
:100D4600BB010CE58229F582E5833AF583E0225062
:100D560006E92582F8E622BBFE06E92582F8E222AC
:0D0D6600E58229F582E5833AF583E49322C6
:100D7300BB010689828A83F0225002F722BBFE015F
:020D8300F32259
:100D8500EF8DF0A4A8F0CF8CF0A428CE8DF0A42E82
:020D9500FE223C
:100D9700BC000BBE0029EF8DF084FFADF022E4CC40
:100DA700F875F008EF2FFFEE33FEEC33FCEE9DEC09
:100DB700984005FCEE9DFE0FD5F0E9E4CEFD22ED4F
:100DC700F8F5F0EE8420D21CFEADF075F008EF2F99
:100DD700FFED33FD4007985006D5F0F222C398FD8A
:050DE7000FD5F0EA2227
:100DEC00C2D5EC30E709B2D5E4C39DFDE49CFCEE22
:100DFC0030E715B2D5E4C39FFFE49EFE120D97C3F6
:100E0C00E49DFDE49CFC8003120D9730D507C3E4F0
:060E1C009FFFE49EFE2290
:0E0E2200C3E49FFFE49EFEE49DFDE49CFC22E1
:100E3000E493FC740193FD740293FE740393FF2208
:100E4000E493F8740193F9740293FA740393FB2208
:100E5000FAE6FB0808E6F925F0F618E6CA3AF622A3
:100E6000D083D082F8E4937012740193700DA3A321
:100E700093F8740193F5828883E473740293686035
:060E8000EFA3A3A380DF35
:10199D00EFB40A07740D1219A8740A309811A8999A
:1019AD00B8130CC2983098FDA899C298B811F630AA
:0719BD0099FDC299F5992282
:101A3300E4FFFE120D2D600C0FEF70010E09E9702B
:051A4300F20A80EF2211
:00000001FF
