:10000300808182838485868788898A8B4F75722055
:10001300667269656E64206F766572207468652008
:10002300776F6C640050726F6772616D2062792024
:100033004B65696C2043353120362E3132005468CC
:10004300616E6B20796F75207E767E20313233347A
:10005300353637383930000404C4445F4444F4442B
:100063004F54644446040080403F00404020201326
:100073000C18244380E00000FE4A4A00FEEAAAAAC4
:10008300FE004A4AFE000002834222121B020202C1
:100093000B122262C3020000FE02D25252D23ED29F
:1000A300161A12FF02000000FF5053524A6B504FC2
:1000B300547B40FF00000000FE22D20E20B84FB256
:1000C3009E809F728A060000FF04080721120A46D9
:1000D300827E060A123100000000000000000000CA
:1000E300C03008040200000000000000000000000F
:1000F300030C10204000000000FC4454547C55D6EF
:10010300547C545444440080601F809F5535151F10
:100113001515355F8000000008E8A8A8A8A8FFA867
:10012300A8A8A8E80C0800004023120A0602FF0250
:10013300060A1223602000000002040830C00000F9
:100143000000000000000000004020100C0300002D
:100153000000000000000004040484E43C2724247D
:100163002424F42406040004020100FF09090909F8
:1001730049897F0000000000FE0222DA0600FE9299
:10018300929292FF02000000FF0810080700FF424E
:100193002408142261200000008040300C00C007B6
:1001A3001A20408080800001012070282423202011
:1001B300283060000100001010929292929292D225
:1001C3009A1202FF02000000003F10101010103FAF
:1001D3000040807F000000000000000000000000DD
:1001E30000000000000000000000F8000000000014
:1001F30000002700000000000804020804020000B9
:10020300000000000000004040F84040F8400004B7
:100213003F04043F040400007088FC080830000019
:100223001C20FF21221C00F008F080700800000051
:10023300310E011E211E0000F00888700000001E10
:1002430021232418162000201800000000000000BD
:100253000000000000000000000000C0300804009F
:10026300000000030C1020040830C0000000002030
:10027300100C0300000000404080F080404000026A
:1002830002010F01020200000000E0000000000173
:1002930001010F01010100000000000000000080C7
:1002A30060000000000000000000000000000001EA
:1002B3000101010101010000000000000000000035
:1002C300200000000000000000000000E01804000F
:1002D30040300C0300000000E010080810E00000AC
:1002E3000F102020100F00001010F8000000000075
:1002F30020203F20200000007008080888700000BC
:10030300302824222130000030088888483000003B
:1003130018202020110E000000C02010F80000005B
:10032300070424243F240000F808888808080000F4
:1003330019212020110E0000E01088881800000009
:100343000F112020110E0000380808C838080000DB
:1003530000003F000000000070880808887000005B
:100363001C222121221C0000E010080810E00000DC
:1003730000312222110F0000006060000000000025
:1003830000181800000000000000800000000000BA
:100393000080600000000000008040201008000082
:1003A3000102040810200040404040404040000447
:1003B300040404040404000008102040800000002A
:1003C30020100804020100003008080888700000AB
:1003D30000002601000000C030C828E810E0000734
:1003E300182728272807000000E01818E00000302D
:1003F3000F040404040F30F8080808089060003F55
:1004030021212121120C00E0100808081060000FC0
:1004130010202020100C00F80808080810E0003F06
:1004230020202020100F0000F8080808080800000A
:100433003F212121212000F8080808080808003F6F
:1004430001010101010000E0100808081060000F1D
:1004530010202021113F0000F800000000F80000E8
:100463003F010101013F00000000F800000000000F
:1004730000003F00000000000000000000F8000042
:100483001C202020201F0000F800804020100800BE
:100493003F010003041820F8000000000000003FA3
:1004A30020202020202000F8E0000000E0F8003F9A
:1004B300000F300F003F0000F830C00000F80000CC
:1004C3003F000106183F0000E010080810E000009C
:1004D3000F102020100F00F80808080810E0003F54
:1004E3000202020201000000E010080810E0000010
:1004F3000F10202C102F00F8080808089060003F08
:100503000101010718200060908808081020000CE2
:1005130010202121120C00080808F8080808000020
:1005230000003F00000000F80000000000F8000F8A
:1005330010202020100F0018E0000000E018000039
:10054300010E300E010000F800C038C000F80003AF
:100553003C0300033C03000830C000C03008002007
:10056300180601061820000830C000C0300800003B
:1005730000003F0000000008080808C828180030E1
:100583002C222120202000000000807E0200000099
:100593000000003F20000000087080000000000001
:1005A3000000010E30C00000027E80000000000049
:1005B300203F0000000000000804020204080000BD
:1005C30000000000000000000000000000000080A8
:1005D3008080808080808000000206040800000084
:1005E3000000000000000000008080808000000008
:1005F30019242424143F0000F800808080000000A8
:100603003F112020201F0000008080808000000E0A
:1006130011202020201100000080808000F80000BD
:100623001F202020113F0000008080800000000E6A
:1006330015242424251600008080F0888888000073
:1006430000003F00000000000080808080800040A8
:10065300B7A8A8A8A7400000F80080808000000089
:100663003F010000003F0000000098000000000070
:1006730000003F00000000000000009800000000A0
:100683008080807F00000000F800000080000000F0
:100693003F04020D102000000000F80000000000DD
:1006A30000003F0000000080808080808000003FC9
:1006B30000003F00003F00008000808080000000B9
:1006C3003F010000003F0000008080800000000E1A
:1006D30011202020110E0000800080808000000087
:1006E300FF112020201F0000008080800080000078
:1006F3001F20202011FF00000080000080800000E8
:10070300003F0101000000000080808080000000A5
:1007130013242424241900008080E08080800000BA
:1007230000001F2020200000800000000080000047
:100733001F202020103F00800000000000800000E8
:100743000718201807000080000080000080000FB9
:10075300300E010E300F00800000000000800020EA
:10076300110A040A1120008000000000008000002C
:1007730087986018070000008080808080800000D8
:1007830030282422212000000000807E0200000087
:100793000000003F200000000000FF0000000000F8
:1007A3000000FF0000000000027E80000000000047
:1007B300203F0000000000000601010604030000C2
:0707C300000000000000002F
:1008E100E4F51AF51B7F28120CBA120ADC7A00799A
:1008F1000F120B1DE4F51A751B027BFF7A007903B9
:100901007D0C120B21E4F51A751B047A007928126B
:100911000B1DE4F51A751B067BFF7A0079417D18E2
:10092100120B21E4F508F51AF51B120B5CE4F51A1C
:10093100751B0F120B5CE4F51A751B20120B5CE49E
:10094100F51A751B01C2007F1F120B60751ABF7566
:100951001B01C2007F1F120B60E4F51A751B3F7D5E
:100961001F7F2C1207CA751A2C751B1F7D3E7FBE77
:100971001207CAAF08120C5F05087F64120CBA8017
:01098100F283
:1007CA00E4F50AF50BF50CF50DE51AFBC3EF9BF5FD
:1007DA000FE49400F50EC3ED951BF511E49400F5B2
:1007EA0010D3E50F9400E50E6480948040057514DB
:1007FA0001800DE50F450E7004F51480037514FF92
:10080A00D3E5119400E510648094804005751501C4
:10081A00800DE51145107004F51580037515FFAFBD
:10082A000F120CF0EF3395E0F50E8F0FAF11120C8B
:10083A00F0EF3395E0F5108F11D3E50F9511E51020
:10084A006480F8E50E6480984008850E12850F13BF
:10085A008006851012851113E4F509E5132401FFBA
:10086A00E43512FED3E5099FEE6480F8748098504F
:10087A0065120B9AE50F250BF50BE50E350AF50AFD
:10088A00E511250DF50DE510350CF50CD3E50B95A5
:10089A0013E5126480F8E50A6480984012E50B9526
:1008AA0013F50BE50A9512F50AE514251AF51AD37C
:1008BA00E50D9513E5126480F8E50C648098401202
:1008CA00E50D9513F50DE50C9512F50CE515251BAF
:0608DA00F51B05098085F5
:0108E00022F5
:040B5C00D2007FC084
:020B60008F09FB
:100B620030001A851A0BE4F50AE50AC395095027E5
:100B7200E50B250AF51A120B9A050A80EC851B0A69
:100B8200E4F50BE50BC39509500DE50A250BF51BA2
:070B9200120B9A050B80EC29
:010B99002239
:100B9A00851A16851B17E517131313541FF51B1215
:100BAA000BF8E5175407FF7E01EEA807088002C379
:100BBA0033D8FCFE4519FF120C2F85161A85171B10
:010BCA002208
:100C5F00EF44C0F519FF120C72AF19120C84AF19C3
:030C6F00020C96DE
:040B1D007BFF7D18C5
:080B21008B098A0A890B8D0C77
:100B2900E4F50DE50DC3950C5028AB09AA0AA90BEC
:100B3900850D82758300120BCBF50E30E708547FC3
:100B4900FF1209828008E50E24E0FF120A1A050D3A
:020B590080D149
:010B5B002277
:100A1A00851A10851B11EF75F010A485F012F513D5
:100A2A00E4F50F120C1E0513E51370020512051AE0
:100A3A00E51AB4C007E4F51A051B051BE51BD39498
:100A4A00074003E4F51B050FE50FC3940840D4855E
:100A5A00101AE51104F51BE4F50F120C1E0513E537
:100A6A001370020512051AE51AB4C007E4F51A054F
:100A7A001B051BE51BD394074003751B01050FE5F6
:090A8A000FC3940840D485111B30
:010A93002240
:10098200851A10851B11EF75F020A485F012F5135E
:10099200E4F50F745A2513F58274003512F583E4D9
:1009A20093FF120C2F0513E51370020512051AE5C9
:1009B2001AB4C007E4F51A051B051BE51BD3940600
:1009C2004003E4F51B050FE50FC3941040C58510E5
:1009D2001AE51104F51BE4F50F745A2513F5827418
:1009E200003512F583E493FF120C2F0513E5137003
:1009F200020512051AE51AB4C007E4F51A051B052B
:100A02001BE51BD394074003751B01050FE50FC3BC
:070A1200941040C585111B83
:010A190022BA
:100C4100E4F51BE4F51AE4FF120C2F051AE51AC3AB
:0E0C510094C040F2051BE51BC3940840E62248
:100BF800120A947580FFD2A6D2A7D2A300858019C5
:100C0800C2A3120A947580FF00D2A6D2A7D2A3006D
:060C1800858019C2A32231
:100C1E0074DA2513F58274013512F583E493F51910
:010C2E00FFC6
:100C2F008F18120A94D2A6C2A7851880D2A300C229
:020C3F00A322EE
:100C72008F09120CD5C2A6C2A7850980D2A300C2D1
:020C8200A322AB
:100C84008F09120CDEC2A6C2A7850980D2A300C2B6
:020C9400A32299
:100C96008F09120CE7C2A6C2A7850980D2A300C29B
:020CA600A32287
:090CD500C2A4D2A5D2B2020CA8FF
:090CDE00D2A4C2A5D2B2020CA8F6
:090CE700D2A4D2A5C2B2020CA8ED
:100CA800C2A6D2A77580FFD2A300E58020E7FBC2C9
:020CB800A32275
:100A9400E51A54C024C0600D24C0600E2480700D7B
:100AA400120CD58008120CDE8003120CE7E51A54F0
:100AB4003F4440FFE51B540744B8FE120CA8C2A6ED
:100AC400C2A78E80D2A300C2A3120CA8C2A6C2A73A
:070AD4008F80D2A300C2A332
:010ADB0022F8
:100ADC0075193EAF19120C72AF19120C84AF1912A2
:100AEC000C9675193FAF19120C72AF19120C84AF1A
:100AFC0019120C967519C0AF19120C72AF19120C91
:100B0C0084AF19120C96120C41E4F51AF51B020A6B
:010B1C009444
:0E0CBA00EF600B7E047DF0DDFEDEFA1F80F29F
:010CC8002209
:03000000020CC926
:0C0CC900787FE4F6D8FD7581200208E178
:100BCB00BB010CE58229F582E5833AF583E02250DF
:100BDB0006E92582F8E622BBFE06E92582F8E22229
:0D0BEB00E58229F582E5833AF583E4932243
:080CF000EF30E703F404FF22DA
:00000001FF
