:04004D007FF47E01BD
:10005100E4FDFCC3ED9FEE6480F8EC6480985015DC
:10006100E4FBFA0BBB00010AEB647D4A70F50DBDA0
:0500710000010C80DE1F
:010076002267
:10000300E4F590F5A030900512004DB2A030A01495
:10001300C2807FFA7E00120051D2807FE87E0312F5
:1000230000518002D28030910512004DB2A130A15F
:1000330004D2818002C28130920512004DB2A230F7
:0A004300A204D28280BFC28280BBFB
:0300000002007784
:0C007700787FE4F6D8FD758107020003D5
:00000001FF
