:03000000020B658B
:0C0B6500787FE4F6D8FD75814C020BACE3
:100C36000823FEFCF8F0E0C08000082BFFFFFFFF52
:100C4600FFFFFFFF0933000103070F1F3F7FFF0A66
:100C56003DC0F9A4B0999282F880900147000148FE
:100C660000014C00C185C180C182C181C183C1849C
:100D9600E4FF0FBF04FC22D290020D96C290020D12
:010DA60096B6
:100D8000D291D290C291120D96C290D29122C2916C
:060D9000120D9DD291221C
:100CA900120D807FD0AE077D01EE339206A2069227
:100CB90091EE25E0FE120D9D120DA20DBD09EAD29D
:0E0CC90091120D9DA2919206120DA2A206227A
:100C7700E4FE7D01120D9DA2919207EE25E0FEA2F2
:100C870007E4334206120DA20DBD09E8300604C27F
:100C9700918002D291120D9DC290D291120D96AF02
:020CA700062223
:100D2700AC05AB07120CA9AF03120CAEEC75F00AB9
:100D370084C454F0FFEC75F00A84E5F04FFF120C01
:040D4700AE020D8E5D
:100CD700AC07120CA9AF04120CAE120D807FD11213
:100CE7000CAEC206120C77AE07120D8EEEC4540F6F
:0B0CF70075F00AA4FFEE540F2FFF223F
:100D6B00AD21E4FF120D27AD227F01120D27AD3C03
:050D7B007F02020D27BC
:100D0200E5477020E548B40106120D6BE4F548E4AE
:100D1200FF120CD78F217F01120CD78F227F021274
:050D22000CD78F3C22FC
:100BF100120C0FE52275F00A84743D25F0F8E6FF2A
:100C0100120C0FE52275F00A84243DF8E6FFE4FD9D
:100C1100FCEFFB530380EB64807004D2A78002C217
:100C2100A7EF25E0FFC2A6D2A60DBD00010CED6421
:050C3100084C70DD22FB
:100AA500E5477037E52175F00A84743D25F0F8E6D1
:100AB500FF120C0FE52175F00A84243DF8E6FF12BC
:100AC5000BF1E53C75F00A84743D25F0F8E6FF125C
:100AD5000C0FE53C120C06C2A5D2A5E547640170D2
:100AE5002D7FFF120C0F7FFF120C0F7FFF120C0FD3
:100AF5007FFF120C0FE53C75F00A84743D25F0F874
:100B0500E6FF120C0FE53C120C06C2A5D2A5E5477F
:100B1500640270187FFF120C0F7FFF120BF17FFF2D
:100B2500120C0F7FFF120C0FC2A5D2A5E547640377
:100B3500702DE52175F00A84743D25F0F8E6FF1265
:100B45000C0FE521120C067FFF120C0F7FFF120C14
:100B55000F7FFF120C0F7FFF120C0FC2A5D2A5222B
:1009E100A2009205A2B5920030050F20000C054728
:1009F100E547D394034003E4F547E54724FE60400F
:100A010014607324026003020AA4A2029201A2B636
:100A1100920275480130010F20020C053CE53CD3E0
:100A210094174003E4F53CA2049203A2B792043068
:100A3100037120046E153CE53CF47067753C172288
:100A4100A2029201A2B6920275480130010F200262
:100A51000C0522E522D3943B4003E4F522A2049243
:100A610003A2B7920430033B2004381522E522F497
:100A7100703175223B22A2029201A2B69202754800
:100A81000130010E20020B0521E521D3943B4002E8
:100A91000521A2049203A2B79204300306200403A5
:040AA100E4F5212235
:10090600890F89108911AE11E4FCEE30E003D38023
:1009160001C392B1D2B0C2B0EEC313FE0CBC08EA5A
:10092600AE10E4FCEE30E003D38001C392B1D2B046
:10093600C2B0EEC313FE0CBC08EAAE0FE4FCEE3008
:10094600E003D38001C392B1D2B0C2B0EEC313FEAE
:100956000CBC08EAAE0EE4FCEE30E003D38001C323
:1009660092B1D2B0C2B0EEC313FE0CBC08EAAE0D13
:10097600E4FCEE30E003D38001C392B1D2B0C2B042
:10098600EEC313FE0CBC08EAAE03E4FCEE30E00353
:10099600D38001C392B1D2B0C2B0EEC313FE0CBC79
:1009A60008EAAE05E4FCEE30E003D38001C392B161
:1009B600D2B0C2B0EEC313FE0CBC08EAAE07E4FC2C
:1009C600EE30E003D38001C392B1D2B0C2B0EEC321
:0B09D60013FE0CBC08EAC2B2D2B22231
:100800008F08E4FAE50854072423F8E6F50979FF90
:10081000E508C394004019E508940850137DFF7B58
:10082000FF890D890E890F89108911AF0912090CF2
:10083000E508C394084019E50894105013AF02ABC3
:1008400001890D890E890F89108911AD0912090CD2
:10085000E508C394104019E50894185013AF02AD91
:1008600002890D890E890F89108911AB0912090CB3
:10087000E508C394184014E5089420500EAF02AD6B
:1008800002AB0285090D890E120906E508C3942002
:100890004014E5089428500EAF02AD02AB028A0D59
:1008A00085090E120906E508C394284016E5089448
:1008B000305010AF02AD02AB028A0D8A0E85090FCF
:1008C000120908E508C39430401AE508943850141A
:1008D000AF02AD02AB028A0D8A0E8A0F850910891C
:1008E0001112090CE508C39438401AE508943C50ED
:1008F00014AF02AD02AB028A0D8A0E8A0F8A1085F0
:06090000091112090C228E
:100D4B00120CA97F07120CAE7F10120CAE120D8E77
:100D5B001209E1120D02120AA5AF2112080080F050
:100B7100020D4BE493A3F8E493A34003F68001F242
:100B810008DFF48029E493A3F85407240CC8C33385
:100B9100C4540F4420C8834004F456800146F6DF54
:100BA100E4800B0102040810204080900C36E47EA2
:100BB100019360BCA3FF543F30E509541FFEE49349
:100BC100A360010ECF54C025E060A840B8E493A310
:100BD100FAE493A3F8E493A3C8C582C8CAC583CA3B
:100BE100F0A3C8C582C8CAC583CADFE9DEE780BEF3
:010C7600007D
:00000001FF
