:10005B00E4FDFCC3ED9FEE6480F8EC6480985015D2
:10006B00E4FBFA0BBB00010AEB647D4A70F50DBD96
:05007B0000010C80DE15
:01008000225D
:100003007901E4F5080508E508C3940F5018D2A058
:10001300E9FF7E0012005BC2A0C374109FFFE49E41
:10002300FE12005B80DF09B911D87901E4F50805F8
:1000330008E508C3940F501BD2A0E9FFC374109FB7
:10004300FFE49400FE12005BC2A0E9FF7E001200F1
:070053005B80DC09B911D547
:01005A002283
:10008100C2A07F287E0012005BD2A07F5012005BCD
:0200910080EEFF
:0300000002009368
:0C009300787FE4F6D8FD7581080200813A
:00000001FF
