:101E5300100800BF007700FE00EE00FB00DD00EF7E
:101E630000BB20201800FE00FD00FB00F700EF0080
:101E7300DF00BF007F00FE00FD00FB00F700EF0066
:051E8300DF00BF007F3D
:101BF1007580FEAF43AE42121C5075B0FEAF43AECE
:101C010042121C50C2A7AF43AE42121C5075B0EE37
:101C1100AF43AE42121C507590FEAF43AE42121C50
:101C2100507580FFAF43AE42121C5075B0EFAF4309
:101C3100AE42121C50D2A7AF43AE42121C5075B037
:0F1C4100FFAF43AE42121C50121EAAAF43AE4279
:101C5000E4FDFCC3ED9FEE6480F8EC6480985015C1
:101C6000E4FBFA0BBB00010AEB647D4A70F50DBD85
:051C700000010C80DE04
:011C7500224C
:101E8900C2A4C2A0E4F580F5907F02FE121C501294
:101E99001EAAC2A3C2A2C2A17580EE7590EE121C41
:011EA90050E8
:0D1EAA0075B0FF75A0FF7590FF7580FF22D9
:0A1EF700E4F5B0F5A0F590F58022A7
:031D6B00121DE066
:101D6E00E4F53AF53B121E89053BE53B7002053A58
:101D7E00C39446E53A940040ECE4F53AF53BC2A331
:101D8E00C2A1E4F5B07F02FE121C50121EAAC2A21E
:101D9E0075B0AA121C50121EAA053BE53B70020537
:101DAE003AC39414E53A940040D4E4F53AF53BC2B4
:101DBE00A7C2A27F047E00121C50053BE53B7002B9
:101DCE00053AC39446E53A940040E47FC87E00028B
:021DDE001C5097
:101DE000E4F53AF53BC2A7C2A27F047E00121C5064
:101DF000053BE53B7002053AC39446E53A94004042
:101E0000E47F907E01121C50E4F53AF53BC2A3C278
:101E1000A1E4F5B07F02FE121C50121EAAC2A275E8
:101E2000B0AA121C50121EAA053BE53B7002053AEF
:101E3000C39414E53A940040D4E4F53AF53B121EFD
:101E400089053BE53B7002053AC39496E53A940058
:031E500040EC2241
:101EB700753A00753B96121EF7AF3BAE3A121C50AF
:101EC700121EAAAF3BAE3A121C50E53B153B7002FF
:0E1ED700153AD3E53B9400E53A940050D92229
:1010D3008F828E83E4F53AF53BC3E53B9582E53A8F
:1010E3009583500D121E89053BE53B70EC053A8054
:1010F300E8E4F53AF53BC3E53B9582E53A95835041
:1011030031C2A3C2A07590FF75B00E7580017F0236
:101113007E00121C50121EAAC2A2C2A175806D7558
:10112300B0BF121C50121EAA053BE53B70C8053A1E
:1011330080C4E4F53AF53BC3E53B9582E53A9583F4
:10114300502DC2A2C2A0758083C2A775B0F57F02DD
:101153007E00121C50121EAAC2A17580ABC2A71238
:101163001C50121EAA053BE53B70CC053A80C8E42F
:10117300F53AF53BC3E53B9582E53A9583501EC2AC
:10118300A1C2A07580C775B0FB7F047E00121C50FE
:10119300121EAA053BE53B70DB053A80D7E4F53A1E
:1011A300F53BC3E53B9582E53A95835019C2A0759B
:1011B30080EF7F047E00121C50121EAA053BE53B04
:1011C30070E0053A80DC7C007D06AF82AE83121EA0
:1011D300E5121C50E4F53AF53BC3E53B9582E53A4D
:1011E30095835019C2A07580EF7F047E00121C50B6
:1011F300121EAA053BE53B70E0053A80DCE4F53AB4
:10120300F53BC3E53B9582E53A9583501EC2A1C2E7
:10121300A07580C775B0FB7F047E00121C50121EA0
:10122300AA053BE53B70DB053A80D7E4F53AF53B8D
:10123300C3E53B9582E53A9583502DC2A2C2A075C2
:101243008083C2A775B0F57F027E00121C50121E68
:10125300AAC2A17580ABC2A7121C50121EAA053BDD
:10126300E53B70CC053A80C8E4F53AF53BC3E53B72
:101273009582E53A95835031C2A3C2A07590FF755C
:10128300B00E7580017F027E00121C50121EAAC28E
:10129300A2C2A175806D75B0BF121C50121EAA05A3
:1012A3003BE53B70C8053A80C4E4F53AF53BC3E53A
:1012B3003B9582E53A9583500D121E89053BE53B2C
:0712C30070EC053A80E822FF
:100CCD008F828E83E4F53AF53BC3E53B9582E53A99
:100CDD009583500D121E89053BE53B70EC053A805E
:100CED00E8E4F53AF53BC3E53B9582E53A9583504B
:100CFD0034C2A3C2A07580FF75900175B0E07F026C
:100D0D007E00121C50121EAAC2A2C2A17580FF75D0
:100D1D00906D75B0FB121C50121EAA053BE53B7081
:100D2D00C5053A80C1E4F53AF53BC3E53B9582E54F
:100D3D003A95835030C2A2C2A07580FFC2A77590AC
:100D4D008375B05F7F027E00121C50121EAAC2A1D5
:100D5D007590ABC2A7121C50121EAA053BE53B7045
:100D6D00C9053A80C5E4F53AF53BC3E53B9582E507
:100D7D003A9583501EC2A1C2A07590C775B0BF7FB2
:100D8D00047E00121C50121EAA053BE53B70DB05CC
:100D9D003A80D7E4F53AF53BC3E53B9582E53A95C4
:100DAD00835019C2A07590EF7F047E00121C501263
:100DBD001EAA053BE53B70E0053A80DC7C007D0614
:100DCD00AF82AE83121EE5121C50E4F53AF53BC31B
:100DDD00E53B9582E53A95835019C2A07590EF7F5A
:100DED00047E00121C50121EAA053BE53B70E00567
:100DFD003A80DCE4F53AF53BC3E53B9582E53A955F
:100E0D0083501EC2A1C2A07590C775B0BF7F047E6E
:100E1D0000121C50121EAA053BE53B70DB053A8003
:100E2D00D7E4F53AF53BC3E53B9582E53A9583501A
:100E3D0030C2A2C2A07580FFC2A775908375B05F46
:100E4D007F027E00121C50121EAAC2A17590ABC269
:100E5D00A7121C50121EAA053BE53B70C9053A802E
:100E6D00C5E4F53AF53BC3E53B9582E53A958350EC
:100E7D0034C2A3C2A07580FF75900175B0E07F02EA
:100E8D007E00121C50121EAAC2A2C2A17580FF754F
:100E9D00906D75B0FB121C50121EAA053BE53B7000
:100EAD00C5053A80C1E4F53AF53BC3E53B9582E5CE
:100EBD003A9583500D121E89053BE53B70EC053AC2
:030ECD0080E82298
:1008AF008F828E83E4F53AF53BC3E53B9582E53ABB
:1008BF009583500D121E89053BE53B70EC053A8080
:1008CF00E8E4F53AF53BC3E53B9582E53A9583506D
:1008DF0034C2A3C2A075901F75B0837580F07F02DC
:1008EF007E00121C50121EAAC2A2C2A17580F675FC
:1008FF0090DF75B0EF121C50121EAA053BE53B703E
:10090F00C5053A80C1E4F53AF53BC3E53B9582E571
:10091F003A95835033C2A2C2A07580F8C2A77590D2
:10092F003F75B07D7F027E00121C50121EAAC2A11D
:10093F007590BF7580FAC2A7121C50121EAA053BF4
:10094F00E53B70C6053A80C2E4F53AF53BC3E53B9B
:10095F009582E53A95835021C2A1C2A075907F750B
:10096F0080FC75B0FE7F047E00121C50121EAA057B
:10097F003BE53B70D8053A80D4E4F53AF53BC3E547
:10098F003B9582E53A95835019C2A07580FE7F048E
:10099F007E00121C50121EAA053BE53B70E0053A83
:1009AF0080DC7C007D06AF82AE83121EE5121C50E8
:1009BF00E4F53AF53BC3E53B9582E53A958350194B
:1009CF00C2A07580FE7F047E00121C50121EAA0565
:1009DF003BE53B70E0053A80DCE4F53AF53BC3E5D7
:1009EF003B9582E53A95835021C2A1C2A075907FB5
:1009FF007580FC75B0FE7F047E00121C50121EAA7B
:100A0F00053BE53B70D8053A80D4E4F53AF53BC396
:100A1F00E53B9582E53A95835033C2A2C2A075801B
:100A2F00F8C2A775903F75B07D7F027E00121C50F3
:100A3F00121EAAC2A17590BF7580FAC2A7121C50D0
:100A4F00121EAA053BE53B70C6053A80C2E4F53A93
:100A5F00F53BC3E53B9582E53A95835034C2A3C27B
:100A6F00A075901F75B0837580F07F027E00121CF9
:100A7F0050121EAAC2A2C2A17580F67590DF75B082
:100A8F00EF121C50121EAA053BE53B70C5053A80BC
:100A9F00C1E4F53AF53BC3E53B9582E53A958350C2
:0F0AAF000D121E89053BE53B70EC053A80E822ED
:1012CA008F828E83E4F53AF53BC3E53B9582E53A96
:1012DA009583500D121E89053BE53B70EC053A805B
:1012EA00E8E4F53AF53BC3E53B9582E53A95835048
:1012FA0031C2A4C2A17590FF75B00E7580017F023C
:10130A007E00121C50121EAAC2A2C2A375806D755D
:10131A00B0BF121C50121EAA053BE53B70C8053A25
:10132A0080C4E4F53AF53BC3E53B9582E53A9583FB
:10133A00502DC2A2C2A4758083C2A775B0F57F02E0
:10134A007E00121C50121EAAC2A37580ABC2A7123D
:10135A001C50121EAA053BE53B70CC053A80C8E436
:10136A00F53AF53BC3E53B9582E53A9583501EC2B3
:10137A00A4C2A37580C775B0FB7F047E00121C50FF
:10138A00121EAA053BE53B70DB053A80D7E4F53A25
:10139A00F53BC3E53B9582E53A95835019C2A4759E
:1013AA0080EF7F047E00121C50121EAA053BE53B0B
:1013BA0070E0053A80DC7C007D06AF82AE83121EA7
:1013CA00E5121C50E4F53AF53BC3E53B9582E53A54
:1013DA0095835019C2A47580EF7F047E00121C50B9
:1013EA00121EAA053BE53B70E0053A80DCE4F53ABB
:1013FA00F53BC3E53B9582E53A9583501EC2A3C2ED
:10140A00A47580C775B0FB7F047E00121C50121EA3
:10141A00AA053BE53B70DB053A80D7E4F53AF53B94
:10142A00C3E53B9582E53A9583502DC2A4C2A275C5
:10143A008083C2A775B0F57F027E00121C50121E6F
:10144A00AAC2A37580ABC2A7121C50121EAA053BE2
:10145A00E53B70CC053A80C8E4F53AF53BC3E53B79
:10146A009582E53A95835031C2A4C2A17590FF7561
:10147A00B00E7580017F027E00121C50121EAAC295
:10148A00A2C2A375806D75B0BF121C50121EAA05A8
:10149A003BE53B70C8053A80C4E4F53AF53BC3E541
:1014AA003B9582E53A9583500D121E89053BE53B33
:0714BA0070EC053A80E82206
:0B0695007F147E001210D37F147E0043
:1006A0008F828E83E4F53AF53BC3E53B9582E53ACC
:1006B0009583500D121E89053BE53B70EC053A8091
:1006C000E8E4F53AF53BC3E53B9582E53A9583507E
:1006D00034C2A4C2A17590F075B03875801F7F0236
:1006E0007E00121C50121EAAC2A2C2A37580DF7522
:1006F00090F675B0FE121C50121EAA053BE53B7029
:10070000C5053A80C1E4F53AF53BC3E53B9582E582
:100710003A95835033C2A2C2A475803FC2A7759098
:10072000F875B0D77F027E00121C50121EAAC2A319
:100730007580BF7590FAC2A7121C50121EAA053B05
:10074000E53B70C6053A80C2E4F53AF53BC3E53BAC
:100750009582E53A95835021C2A4C2A375807F7526
:1007600090FC75B0EF7F047E00121C50121EAA058B
:100770003BE53B70D8053A80D4E4F53AF53BC3E558
:100780003B9582E53A95835019C2A47590FE7F048B
:100790007E00121C50121EAA053BE53B70E0053A94
:1007A00080DC7C007D06AF82AE83121EE5121C50F9
:1007B000E4F53AF53BC3E53B9582E53A958350195C
:1007C000C2A47590FE7F047E00121C50121EAA0562
:1007D0003BE53B70E0053A80DCE4F53AF53BC3E5E8
:1007E0003B9582E53A95835021C2A3C2A475807FD0
:1007F0007590FC75B0EF7F047E00121C50121EAA8B
:10080000053BE53B70D8053A80D4E4F53AF53BC3A7
:10081000E53B9582E53A95835033C2A2C2A4758028
:100820003FC2A77590F875B0D77F027E00121C50AA
:10083000121EAAC2A37580BF7590FAC2A7121C50DF
:10084000121EAA053BE53B70C6053A80C2E4F53AA4
:10085000F53BC3E53B9582E53A95835034C2A4C28B
:10086000A17590F075B03875801F7F027E00121C54
:1008700050121EAAC2A2C2A37580DF7590F675B091
:10088000FE121C50121EAA053BE53B70C5053A80BE
:10089000C1E4F53AF53BC3E53B9582E53A958350D3
:0F08A0000D121E89053BE53B70EC053A80E822FE
:100ED0008F828E83E4F53AF53BC3E53B9582E53A94
:100EE0009583500D121E89053BE53B70EC053A8059
:100EF000E8E4F53AF53BC3E53B9582E53A95835046
:100F000034C2A4C2A17580FF75900175B0E07F0264
:100F10007E00121C50121EAAC2A2C2A37580FF75C9
:100F2000906D75B0FB121C50121EAA053BE53B707C
:100F3000C5053A80C1E4F53AF53BC3E53B9582E54A
:100F40003A95835030C2A2C2A47580FFC2A77590A3
:100F50008375B05F7F027E00121C50121EAAC2A3CE
:100F60007590ABC2A7121C50121EAA053BE53B7040
:100F7000C9053A80C5E4F53AF53BC3E53B9582E502
:100F80003A9583501EC2A4C2A37590C775B0BF7FA7
:100F9000047E00121C50121EAA053BE53B70DB05C7
:100FA0003A80D7E4F53AF53BC3E53B9582E53A95BF
:100FB000835019C2A47590EF7F047E00121C50125A
:100FC0001EAA053BE53B70E0053A80DC7C007D060F
:100FD000AF82AE83121EE5121C50E4F53AF53BC316
:100FE000E53B9582E53A95835019C2A47590EF7F51
:100FF000047E00121C50121EAA053BE53B70E00562
:101000003A80DCE4F53AF53BC3E53B9582E53A9559
:1010100083501EC2A3C2A47590C775B0BF7F047E63
:1010200000121C50121EAA053BE53B70DB053A80FE
:10103000D7E4F53AF53BC3E53B9582E53A95835015
:1010400030C2A4C2A27580FFC2A775908375B05F3D
:101050007F027E00121C50121EAAC2A37590ABC262
:10106000A7121C50121EAA053BE53B70C9053A8029
:10107000C5E4F53AF53BC3E53B9582E53A958350E7
:1010800034C2A4C2A17580FF75900175B0E07F02E3
:101090007E00121C50121EAAC2A2C2A37580FF7548
:1010A000906D75B0FB121C50121EAA053BE53B70FB
:1010B000C5053A80C1E4F53AF53BC3E53B9582E5C9
:1010C0003A9583500D121E89053BE53B70EC053ABD
:0310D00080E82293
:100ABE008F828E83E4F53AF53BC3E53B9582E53AAA
:100ACE009583500D121E89053BE53B70EC053A806F
:100ADE00E8E4F53AF53BC3E53B9582E53A9583505C
:100AEE0034C2A4C2A175901F75B0837580F07F02C9
:100AFE007E00121C50121EAAC2A2C2A37580F675E9
:100B0E0090DF75B0EF121C50121EAA053BE53B702C
:100B1E00C5053A80C1E4F53AF53BC3E53B9582E560
:100B2E003A95835033C2A2C2A47580F8C2A77590BD
:100B3E003F75B07D7F027E00121C50121EAAC2A30A
:100B4E007590BF7580FAC2A7121C50121EAA053BE3
:100B5E00E53B70C6053A80C2E4F53AF53BC3E53B8A
:100B6E009582E53A95835021C2A4C2A375907F75F4
:100B7E0080FC75B0FE7F047E00121C50121EAA056A
:100B8E003BE53B70D8053A80D4E4F53AF53BC3E536
:100B9E003B9582E53A95835019C2A47580FE7F0479
:100BAE007E00121C50121EAA053BE53B70E0053A72
:100BBE0080DC7C007D06AF82AE83121EE5121C50D7
:100BCE00E4F53AF53BC3E53B9582E53A958350193A
:100BDE00C2A47580FE7F047E00121C50121EAA0550
:100BEE003BE53B70E0053A80DCE4F53AF53BC3E5C6
:100BFE003B9582E53A95835021C2A4C2A375907F9E
:100C0E007580FC75B0FE7F047E00121C50121EAA69
:100C1E00053BE53B70D8053A80D4E4F53AF53BC385
:100C2E00E53B9582E53A95835033C2A2C2A4758006
:100C3E00F8C2A775903F75B07D7F027E00121C50E2
:100C4E00121EAAC2A37590BF7580FAC2A7121C50BD
:100C5E00121EAA053BE53B70C6053A80C2E4F53A82
:100C6E00F53BC3E53B9582E53A95835034C2A1C26C
:100C7E00A475901F75B0837580F07F027E00121CE4
:100C8E0050121EAAC2A3C2A27580F67590DF75B06F
:100C9E00EF121C50121EAA053BE53B70C5053A80AB
:100CAE00C1E4F53AF53BC3E53B9582E53A958350B1
:0F0CBE000D121E89053BE53B70EC053A80E822DC
:1019E7008E428F437538007539FFE4F53AF53BE5CC
:1019F70039AE38A83B088005C333CE33CED8F9F5C6
:101A0700A0C2A7AF43AE42121C50053BE53B700294
:101A1700053AC39405E53A940040D4121EAA75A06E
:101A270061AF43AE42121C5075A063AF43AE421282
:101A37001C5075A067AF43AE42121C5075A06FAF24
:101A470043AE42121C50121EAAC2A4C2A7AF43AE95
:101A570042121C50D2A775B0AAAF43AE42121C5017
:101A67007580EE7590EE75B0FFAF43AE42121C5015
:101A7700C2A3AF43AE42121C50C2A2AF43AE421242
:101A87001C50C2A1AF43AE42121C50C2A0AF43AE1E
:101A970042121C50D2A4AF43AE42121C50D2A3AF85
:101AA70043AE42121C50D2A2AF43AE42121C50D2D8
:101AB700A1AF43AE42121C50121EAAAF43AE420260
:021AC7001C50B1
:101AC9007542007543FFC2A27542007543FF75B0A8
:101AD900FF7580FF7590FFC2A77F647E00121C50BE
:101AE9007542007543FFE4F583F582E542A2E713E9
:101AF900F542E54313F543F5B07F647E00121C50AF
:101B0900A3E5826408458370E27542007543FFE4EA
:101B1900F583F582E542A2E713F542E54313F54360
:101B2900F5907F647E00121C50A3E582640845830A
:101B390070E27542007543FFE4F583F582E542A240
:101B4900E713F542E54313F543F5807F647E001200
:0B1B59001C50A3E5826408458370E285
:011B6400225E
:101696008F828E83E4F53AF53BC3E53B9582E53AC6
:1016A60095835023E4F5B0F580F590C2A7C2A27FDA
:1016B60001FE121C50121EAA7F04121C50053BE5A7
:1016C6003B70D6053A80D2E4F53AF53BC3E53B9547
:1016D60082E53A95835062C2A075800F7590FE7FB1
:1016E600017E00121C50121EAAC2A17580F77590C9
:1016F600FD75B0E3121C50121EAAC2A27580FB75BE
:1017060090FB75B0DDC2A7121C50121EAAC2A375AB
:1017160080FD7590F775B03E121C50121EAAC2A429
:101726007580FE75900F75B0FF121C50121EAA052B
:101736003BE53B7097053A8093E4F53AF53BC3E504
:101746003B9582E53A9583502EC2A4C2A3C2A2C29B
:10175600A1C2A07580FB7590FB75B0DDC2A77F04A2
:101766007E00121C50121EAA7F01121C50053BE57A
:101776003B70CB053A80C7E4F53AF53BC3E53B95AC
:1017860082E53A95835062C2A475800F7590FE7FFC
:10179600017E00121C50121EAAC2A37580F7759016
:1017A600FD75B0E3121C50121EAAC2A27580FB750D
:1017B60090FB75B0DDC2A7121C50121EAAC2A175FD
:1017C60080FD7590F775B03E121C50121EAAC2A07D
:1017D6007580FE75900F75B0FF121C50121EAA057B
:0A17E6003BE53B7097053A80932223
:100003008F828E83E4F53AF53BC3E53B9582E53A6F
:1000130095835062C2A475800F7590FE7F017E00A8
:10002300121C50121EAAC2A37580F77590FD75B0FD
:10003300E3121C50121EAAC2A27580FB7590FB75B9
:10004300B0DDC2A7121C50121EAAC2A17580FD7595
:1000530090F775B03E121C50121EAAC2A07580FE06
:1000630075900F75B0FF121C50121EAA053BE53B9D
:100073007097053A8093E4F53AF53BC3E53B9582E7
:10008300E53A95835062C2A375800F7590FE7F0198
:100093007E00121C50121EAAC2A47580F77590FD33
:1000A30075B0E3121C50121EAAC2A37580FB759093
:1000B300FB75B0DDC2A7121C50121EAAC2A2758026
:1000C300FD7590F775B03E121C50121EAAC2A175A1
:1000D30080FE75900F75B0FF121C50121EAA053BCF
:1000E300E53B7097053A8093E4F53AF53BC3E53B6E
:1000F3009582E53A95835062C2A275800F7590FE92
:100103007F017E00121C50121EAAC2A37580F775D0
:1001130090FD75B0E3121C50121EAAC2A47580FB99
:100123007590FB75B0DDC2A7121C50121EAAC2A3A4
:100133007580FD7590F775B03E121C50121EAAC251
:10014300A27580FE75900F75B0FF121C50121EAA87
:10015300053BE53B7097053A8093E4F53AF53BC3DD
:10016300E53B9582E53A95835062C2A175800F7590
:1001730090FE7F017E00121C50121EAAC2A275803F
:10018300F77590FD75B0E3121C50121EAAC2A37539
:1001930080FB7590FB75B0DDC2A7121C50121EAA1E
:1001A300C2A47580FD7590F775B03E121C50121EE7
:1001B300AAC2A37580FE75900F75B0FF121C501272
:1001C3001EAA053BE53B7097053A8093E4F53AF5A3
:1001D3003BC3E53B9582E53A95835062C2A07580A7
:1001E3000F7590FE7F017E00121C50121EAAC2A141
:1001F3007580F77590FD75B0E3121C50121EAAC2EC
:10020300A27580FB7590FB75B0DDC2A7121C50125E
:100213001EAAC2A37580FD7590F775B03E121C50DF
:10022300121EAAC2A47580FE75900F75B0FF121C32
:1002330050121EAA053BE53B7097053A8093E4F5FF
:100243003AF53BC3E53B9582E53A95835062C2A1FB
:1002530075800F7590FE7F017E00121C50121EAA3E
:10026300C2A07580F77590FD75B0E3121C50121E85
:10027300AAC2A17580FB7590FB75B0DDC2A7121CE5
:1002830050121EAAC2A27580FD7590F775B03E127A
:100293001C50121EAAC2A37580FE75900F75B0FF85
:1002A300121C50121EAA053BE53B7097053A80933A
:1002B300E4F53AF53BC3E53B9582E53A9583506215
:1002C300C2A275800F7590FE7F017E00121C501232
:1002D3001EAAC2A17580F77590FD75B0E3121C507C
:1002E300121EAAC2A07580FB7590FB75B0DDC2A774
:1002F300121C50121EAAC2A17580FD7590F775B02D
:100303003E121C50121EAAC2A27580FE75900F7574
:10031300B0FF121C50121EAA053BE53B7097053A2D
:100323008093E4F53AF53BC3E53B9582E53A958343
:100333005062C2A375800F7590FE7F017E00121C70
:1003430050121EAAC2A27580F77590FD75B0E31214
:100353001C50121EAAC2A17580FB7590FB75B0DDFF
:10036300C2A7121C50121EAAC2A07580FD7590F779
:1003730075B03E121C50121EAAC2A17580FE759064
:100383000F75B0FF121C50121EAA053BE53B709778
:05039300053A809322F1
:101C76008F828E83C2A0EF25E02418F808E6F5903F
:101C8600F5807F017E00121C50121EAAC2A1AF82EF
:101C9600EF25E0241AF808E6F590F5807F01121C7E
:101CA60050121EAAC2A2AF82EF25E0241CF808E655
:101CB600F590F5807F01121C50121EAAC2A3AF82B6
:101CC600EF25E0241EF808E6F590F5807F01121C4A
:101CD60050121EAAC2A4AF82EF25E02420F808E61F
:0C1CE600F590F5807F01121C50021EAA30
:081CF2007D077F647C007E0089
:101CFA008C428D438F828E83E4F53AF53BC3E53BF4
:101D0A009543E53A95425058C2A7C2A2AF82AE8324
:101D1A00121C50121EAAC2A3C2A175B0AAAF82AEEB
:101D2A0083121C50121EAAC2A4C2A07590EE75801E
:101D3A00EEE582AE837802C333CE33CED8F9FF12F2
:101D4A001C50121EAAC2A3C2A175B0AAAF82AE834A
:101D5A00121C50121EAA053BE53B70A1053A809D54
:011D6A002256
:0417F0007F647E0094
:1017F4008E428F43C2A0121BF1C2A47590EF121C3B
:101804004C75B0BF121C4CC2A7121C4C75B0BB1255
:101814001C4C7580EF121C4C7590FF121C4C75B05B
:10182400FB121C2F7590FE7538007539FFE4F53AEC
:10183400F53BE539AE38A83B088005C333CE33CE3B
:10184400D8F9F5A0D2A7121C4C053BE53B70020564
:101854003AC39405E53A940040D8121EAA7590FE46
:1018640075A0E1121C4C75A0E3121C4C75A0E71284
:101874001C4C75A0EF121C42C2A37590F7121C4CAD
:1018840075B0BF121C4C75B03F121C4C75B03E12A3
:101894001C4C7580FD121C4C7590FF121C4C75B0CD
:1018A4007E121C4C75B0FE121C38C2A1121BF1C270
:1018B400A27590EF121C4C75B0BF121C4CC2A7123B
:1018C4001C4C75B0BB121C4C7580EF121C4C7590EF
:1018D400FF121C4C75B0FB121C4CD2A7121C4C7589
:0F18E400B0FF121C4C121EAAAF43AE42021C50A2
:10039800E4F53AF53BC2A7E4F5B0F590F580C2A4C0
:1003A800C2A07F02FE121C50121EAAC2A2C2A3C281
:1003B800A17580FB7590FB75B0DDC2A7121C5012A9
:1003C8001EAA053BE53B7002053AC394C8E53A947A
:1003D8000040C27FE87E03121C50E4F53AF53BC2A8
:1003E800A7E4F5B0F590F580C2A4C2A07F02FE1282
:1003F8001C50121EAAC2A2C2A3C2A17580FB75908E
:10040800FB75B0DDC2A7121C50121EAA053BE53BC6
:100418007002053AC394C8E53A940040C27FE87E6A
:1004280003121C50E4F53AF53BC2A7E4F5B0F59089
:10043800F580C2A4C2A07F02FE121C50121EAAC2DE
:10044800A2C2A3C2A17580FB7590FB75B0DDC2A7DF
:10045800121C50121EAA053BE53B7002053AC394D4
:10046800C8E53A940040C27FE87E03121C50E4F5C8
:100478003AF53BC2A07580FB7590FB75B0DDC2A74D
:100488007F017E00121C50121EAAC2A17580F17550
:1004980090F1E4F5B0C2A7121C50121EAAC2A7E43C
:1004A800F5B0F590F580C2A3C2A2121C50121EAA84
:1004B800C2A47580F57590F575B022121C50121EF5
:1004C800AA053BE53B7002053AC394C8E53A940097
:1004D80040A17FE87E03121C50E4F53AF53BC2A028
:1004E8007580FB7590FB75B0DDC2A77F017E001299
:1004F8001C50121EAAC2A17580F17590F1E4F5B0E6
:10050800C2A7121C50121EAAC2A7E4F5B0F590F5B6
:1005180080C2A3C2A2121C50121EAAC2A47580F5E2
:100528007590F575B022121C50121EAA053BE53BCA
:100538007002053AC394C8E53A940040A17FE87E6A
:1005480003121C50E4F53AF53BC2A07580FB759088
:10055800FB75B0DDC2A77F017E00121C50121EAAD7
:10056800C2A17580F17590F1E4F5B0C2A7121C50D4
:10057800121EAAC2A7E4F5B0F590F580C2A3C2A2E4
:10058800121C50121EAAC2A47580F57590F575B09C
:1005980022121C50121EAA053BE53B7002053AC305
:1005A80094C8E53A940040A17FE87E03121C50E409
:1005B800F53AF53BC2A07580F17590F1E4F5B0C24B
:1005C800A77F02FE121C50121EAAC2A4C2A3C2A276
:1005D800C2A175800E75900E75B0FF121C50121EC8
:1005E800AA053BE53B7002053AC394C8E53A940076
:1005F80040C27FE87E03121C50E4F53AF53BC2A0E6
:100608007580F17590F1E4F5B0C2A77F02FE121C67
:1006180050121EAAC2A4C2A3C2A2C2A175800E759E
:10062800900E75B0FF121C50121EAA053BE53B70D8
:1006380002053AC394C8E53A940040C27FE87E03B5
:10064800121C50E4F53AF53BC2A07580F17590F1A3
:10065800E4F5B0C2A77F02FE121C50121EAAC2A463
:10066800C2A3C2A2C2A175800E75900E75B0FF120A
:100678001C50121EAA053BE53B7002053AC394C8FC
:0D068800E53A940040C27FE87E03021C505A
:1018F3008E428F43121EAAC2A0E4F53AF53BE539A6
:10190300AE38A83B088005C333CE33CED8F9F58073
:10191300AF43AE42121C50053BE53B7002053AC390
:101923009408E53A940040D6E4F53AF53BE539AE40
:1019330038A83B088005C333CE33CED8F9F590AF32
:1019430043AE42121C50053BE53B7002053AC3947B
:1019530008E53A940040D6E4F53AF53BD2A0C2A19B
:101963007F647E00121C50D2A1C2A2121C50D2A2CC
:10197300C2A3121C50D2A3C2A4121C50D2A4C2A34D
:10198300121C50D2A3C2A2121C50D2A2C2A1121C7A
:1019930050D2A1C2A0121C50053BE53B7002053A90
:1019A300C39401E53A940040B3D2A0C2A17F647E00
:1019B30000121C50D2A1C2A2121C50D2A2C2A31266
:1019C3001C50D2A3C2A4121C50C2A3121C50C2A208
:1019D300121C50C2A1121C50C2A0121C507FE87EE0
:0419E30003021C508F
:1014C100E4F53CF53D121EB7120398121D6B121D77
:1014D1006B121DE0121D6E121AC9753C00753D9606
:1014E100AF3DAE3C121696D3E53D941EE53C6480BB
:1014F1009480400C74F1253DF53D74FF353CF53C7D
:10150100E53D153D7002153CD3E53D9400E53C6495
:1015110080948050CBE4F53CF53DAF3DAE3C1216D6
:1015210096D3E53D941EE53C64809480400B740F96
:10153100253DF53DE4353CF53C053DE53D700205B5
:101541003CC39464E53C6480948040CE753C007556
:101551003D14AF3DAE3C120003053DE53D70020573
:101561003CC39428E53C6480948040E6121EAA7D29
:10157100057F50121CF6E4F540F541E4F53CF53DDC
:10158100E4F53EF53FAF3DAE3C121C76053FE53F2D
:101591007002053EC39414E53E6480948040E605E4
:1015A1003DE53D7002053CC39408E53C64809480B0
:1015B10040CE0541E54170020540C39411E5406408
:1015C10080948040B6121CF21217F01217F0121715
:1015D100F07F8C7E001219E77F5A7E001219E77F97
:1015E100647E001219E77F467E001219E77FC87EEC
:1015F100001219E71203987F887E13121C507F6432
:101601007E001218F3121CF21206957F147E00124E
:101611000CCD7F147E00120ABE7F147E001208AF2B
:101621007F147E001212CA7F147E00120ED07F1426
:101631007E00120CCD1206957F147E001212CAE4B0
:10164100F540F541C3E541940FE540648094804045
:10165100030214C6E4F53CF53DE4F53EF53FAF3D2C
:10166100AE3C121C76053FE53F7002053EC3941463
:10167100E53E6480948040E6053DE53D7002053C11
:10168100C39408E53C6480948040CE0541E54170F7
:05169100B3054080AF2D
:03000000021B657B
:0C1B6500787FE4F6D8FD758143021BACCC
:101EE500EF8DF0A4A8F0CF8CF0A428CE8DF0A42E11
:021EF500FE22CB
:101B71000214C1E493A3F8E493A34003F68001F2B5
:101B810008DFF48029E493A3F85407240CC8C33375
:101B9100C4540F4420C8834004F456800146F6DF44
:101BA100E4800B0102040810204080901E53E47E63
:101BB100019360BCA3FF543F30E509541FFEE49339
:101BC100A360010ECF54C025E060A840B8E493A300
:101BD100FAE493A3F8E493A3C8C582C8CAC583CA2B
:101BE100F0A3C8C582C8CAC583CADFE9DEE780BEE3
:011E88000059
:00000001FF
