:10035F002569000000000000000000005F000000A1
:10036F00000700070000147F147F1400242A7F2A3F
:10037F00120023130864620036495522500000050D
:10038F0003000000001C224100000041221C00005D
:10039F0014083E08140008083E08080000503000FA
:1003AF000000080808080800006060000000201026
:1003BF00080402003E5149453E0000427F400000C4
:1003CF004261514946002141454B31001814127FBB
:1003DF0010002745454539003C4A49493000017115
:1003EF0009050300364949493600064949291E00C7
:1003FF000036360000000056360000000814224177
:10040F0000001414141414000041221408000201F7
:10041F0051090600324979413E007E1111117E00CB
:10042F007F49494936003E41414122007F414122E7
:10043F001C007F49494941007F09090901003E41DC
:10044F0049497A007F0808087F0000417F4100007A
:10045F002040413F01007F08142241007F4040406F
:10046F0040007F020C027F007F0408107F003E4196
:10047F0041413E007F09090906003E4151215E00BE
:10048F007F091929460046494949310001017F0179
:10049F0001003F4040403F001F2040201F003F40D1
:1004AF0038403F0063140814630007087008070002
:1004BF00615149454300007F41410000020408108B
:1004CF0020000041417F000004020102040040406F
:1004DF0040404000000102040000205454547800B2
:1004EF007F4844443800384444442000384444484A
:1004FF007F00385454541800087E090102000C5232
:10050F0052523E007F080404780000447D400000F2
:10051F002040443D00007F102844000000417F40F0
:10052F0000007C04180478007C0804047800384428
:10053F00444438007C1414140800081414187C0068
:10054F007C0804040800485454542000043F4440DD
:10055F0020003C4040207C001C2040201C003C40E0
:10056F0030403C004428102844000C5050503C00B0
:10057F004464544C440000083641000000007F00E2
:10058F0000000041360800001008081008007846E7
:03059F004146785A
:0408AB00020800003F
:10084E00E4FDFCC3ED9FEC9E5015E4FBFA0BBB00E0
:0F085E00010AEB647E4A70F50DBD00010C80E4C9
:01086D002268
:10077400C294EF4E6004D2968002C296E4F50AF564
:100784000BED5480FF3395E04F7004C2958002D284
:1007940095C297D297ED25E0FD050BE50B70020598
:0C07A4000A6408450A70DAB296C294227A
:1007B000AC05AB071C1BEC75F006A4FC540FFDE464
:1007C000FFFE120774ECC454074410FDE4FF120747
:0C07D00074EB540F44B0FDE4FF0207740A
:10072C00E4F50CF50DE50D04FF7D011207B0E4F5C1
:10073C0010F511E4FD7F01FE1207740511E511702F
:10074C00020510C39482E5106480948040E5050D89
:10075C00E50D7002050CC39408E50C648094804090
:08076C00C47D017F010207B00A
:1006C800AB07AA06C3EB9420EA648094804054D315
:1006D800EB947FEA64809480504974E02BFB74FFAC
:1006E8003AFAE4F50EF50F90036275F006EB120581
:1006F800BBEA75F006A42583F583E582250FF5820C
:10070800E583350EF583E493FD7F017E00120774BF
:10071800050FE50F7002050EC39406E50E6480947C
:040728008040C42227
:1007DC008B278A288929AB27AA28A9291205A26068
:1007EC00170529E5297002052814F91205A2FF3313
:0907FC0095E0FE1206C880DE2221
:10088D007DE2E4FFFE1207747F6412084E7DAFE433
:0E089D00FF1207747D2FE4FF12077402072C70
:10086E00752AFF752B03752C5F8E2D8F2E7B007ACC
:0F087E0000792212005F7B007A0079220207DCEA
:10082C0012088D0509E509700205087D017F01128A
:10083C0007B0AF09AE0812086E7F647E0012084E36
:02084C0080E149
:0300000002063CB9
:0C063C00787FE4F6D8FD75813A02068351
:1005A200BB010689828A83E0225002E722BBFE0257
:0905B200E32289828A83E493228A
:0C05BB00A42582F582E5F03583F583224B
:10000300E536242AF8E60536227827300702782ACF
:10001300E475F0011206060205A22000EB7F2ED242
:10002300008018EF540F2490D43440D4FF30040BD5
:10003300EF24BFB41A0050032461FFE537600215B3
:1000430037053AE53A7002053930070D7827E4752C
:10005300F001120606EF0205F40208057403D20745
:100063008003E4C207F5368B278A288929E4F5370C
:10007300F539F53AE53760077F2012003E80F575C4
:1000830038FFC201C200C202C203C205C206C208CF
:1000930012000CFF700D3007057F0012004FAF3ABE
:1000A300AE3922B4255FC2D5C20412000CFF24D09E
:1000B300B40A00501A75F00A783730D50508B6FF30
:1000C3000106C6A426F620D5047002D20380D924E3
:1000D300CFB41A00EF5004C2E5D20402024FD2019A
:1000E30080C6D20080C0D20280BCD2D580BAD205ED
:1000F30080B47F2012003E2002077401B537004010
:10010300F1120003FF12003E020077D208D20680EC
:1001130095120003FB120003FA120003F94A4B7015
:100123000679207A037BFF20022EE537602A7E00C2
:100133008E827583001205C760060EEE653870F077
:10014300C2D5EBC0E0EAC0E0E9C0E0EE120296D00F
:10015300E0F9D0E0FAD0E0FB1205A2FF60AAEBC001
:10016300E0EAC0E0E9C0E012003ED0E02401F9D0AB
:10017300E03400FAD0E0FBE5380460DCD538D98000
:10018300877BFF7A027992D202809C791080027970
:1001930008C206C2088008D2D5790A8004790AC247
:1001A300D5E538047002F538E4FAFDFEFF120003CA
:1001B300FC7B08200113120003FD7B1030000A12A0
:1001C3000003FE120003FF7B20EC3382D592D5504F
:1001D30013C3E43000069FFFE49EFEE42001039D69
:1001E300FDE49CFCE4CBF8C201EC700CCFCECDCC8B
:1001F300E824F8F870F38017C3EF33FFEE33FEED16
:1002030033FDEC33FCEB33FB994002FB0FD8E9EBF6
:10021300300105F8D0E0C448B201C0E00AEC4D4E0D
:100223004F78207B0070C2EAB5380040BCC0E012B2
:100233000298D0F0D0E0200104C4C0E0C4B201C0F1
:10024300F0120027D0F0D5F0EB020077120616016A
:100253001453018E5800E54C00E14201924F019A7C
:0F02630044019A4900FA4301A0550184460184E1
:100272004501844703405000E92D00ED2E01102B6B
:1002820000F123010E2003292A00A94800000108D9
:100292003F3F3F00790AA2D5200314300509B91067
:1002A200020404B9080104A2D52006025001042068
:1002B20002689202B537005034C0E07F2030031943
:1002C2007F30A20272067205500F1202EFC202C202
:1002D20006C205C2087F30800F300503E9C0E01274
:1002E200003E300503D0E0F9D0E0B537CC30051739
:1002F2007F30B9100C12003E7F583004077F78809F
:1003020003B9080312003E3002057F2D02003E7F32
:10031200202008F87F2B2006F322920280CF286E3D
:10032200756C6C2900D2011200033001F8C2017809
:100332003730D50108F60200A92D50434958120062
:10034200032403B405004001E490033B9312002F01
:0D035200743A12002FD20375370402018E99
:1006480002082CE493A3F8E493A34003F68001F294
:1006580008DFF48029E493A3F85407240CC8C333B3
:10066800C4540F4420C8834004F456800146F6DF82
:10067800E4800B01020408102040809008ABE47E5F
:10068800019360BCA3FF543F30E509541FFEE49377
:10069800A360010ECF54C025E060A840B8E493A33E
:1006A800FAE493A3F8E493A3C8C582C8CAC583CA69
:1006B800F0A3C8C582C8CAC583CADFE9DEE780BE21
:0108AF000048
:1005C700BB010CE58229F582E5833AF583E02250E9
:1005D70006E92582F8E622BBFE06E92582F8E22233
:0D05E700E58229F582E5833AF583E493224D
:1005F400BB010689828A83F0225002F722BBFE01E6
:02060400F322DF
:10060600FAE6FB0808E6F925F0F618E6CA3AF622F5
:10061600D083D082F8E4937012740193700DA3A373
:1006260093F8740193F5828883E473740293686087
:06063600EFA3A3A380DF87
:10080500EFB40A07740D120810740A309811A899EC
:10081500B8130CC2983098FDA899C298B811F63053
:0708250099FDC299F599222B
:00000001FF
