:07008B001200577F647E00A4
:10009200E4FDFCC3ED9FEE6480F8EC64809850159B
:1000A200E4FBFA0BBB00010AEB647D4A70F50DBD5F
:0500B20000010C80DEDE
:0100B7002226
:10005700750A00750B10EF30E705438001800353E5
:1000670080FEEF25E0FFEE33FE5380FD438002E57F
:100077000B150B7002150AE50B450A70D95380FB67
:04008700438004228C
:1000030090000074FFF50EF50F751000F511C3E5B0
:10001300829403E58364809480AF0FAE0E50101278
:10002300008BE50F25E0F50FE50E33F50E80151275
:10003300008BE50F25E0FFE50E33FEEF2401F50FFE
:10004300E43EF50EA3E582640C458370C17FE87E30
:040053000302009212
:0500C40012000380FBA7
:030000000200B843
:0C00B800787FE4F6D8FD7581110200C4C9
:00000001FF
