:10047F00256900427574746F6E2069732070726500
:05048F007373656400B9
:1004BD00758921759850758BF3758DF3D28ED2ACED
:0304CD00D2AF2289
:060410008B1D8A1E891FEE
:10041600120494E4FEEEC39F5018AB1DAA1EA91F3A
:100426008E82758300120382F5993099FDC2990E6A
:0204360080E361
:0104380022A1
:03002300020003D5
:07000300C0E0C0D0309811ED
:10000A0085991CE51CB43102D2A0E51CB43002C2A9
:01001A00A045
:07001B00C298D0D0D0E03202
:10046000750BFF750C04750D7F8E0E8F0F7B007A58
:0F0470000079221200827B007A007922020410A8
:1004A90075A0FF1204BD20A0FD7BFF7A047982129A
:0404B900041080F2B9
:030000000204D027
:0C04D000787FE4F6D8FD7581260204A9AF
:10038200BB010CE58229F582E5833AF583E0225030
:1003920006E92582F8E622BBFE06E92582F8E2227A
:0D03A200E58229F582E5833AF583E4932294
:10002600E517240BF8E60517227808300702780B47
:10003600E475F0011203DA0203AF2000EB7F2ED243
:10004600008018EF540F2490D43440D4FF30040BB2
:10005600EF24BFB41A0050032461FFE518600215AF
:1000660018051BE51B7002051A30070D7808E475A4
:10007600F0011203DAEF0203C80204397403D2074F
:100086008003E4C207F5178B088A09890AE4F51884
:10009600F51AF51BE51860077F2012006180F575DB
:1000A60019FFC201C200C202C203C205C206C208CB
:1000B60012002FFF700D3007057F00120072AF1B74
:1000C600AE1A22B4255FC2D5C20412002FFF24D077
:1000D600B40A00501A75F00A781830D50508B6FF2C
:1000E6000106C6A426F620D5047002D20380D924C0
:1000F600CFB41A00EF5004C2E5D204020272D20154
:1001060080C6D20080C0D20280BCD2D580BAD205C9
:1001160080B47F201200612002077401B5180040E8
:10012600F1120026FF12006102009AD208D2068060
:1001360095120026FB120026FA120026F94A4B7089
:100146000679437A037BFF20022EE518602A7E009B
:100156008E8275830012038260060EEE651970F0BA
:10016600C2D5EBC0E0EAC0E0E9C0E0EE1202B9D0C9
:10017600E0F9D0E0FAD0E0FB1203AFFF60AAEBC0D3
:10018600E0EAC0E0E9C0E0120061D0E02401F9D065
:10019600E03400FAD0E0FBE5190460DCD519D9801B
:1001A600877BFF7A0279B5D202809C79108002792A
:1001B60008C206C2088008D2D5790A8004790AC224
:1001C600D5E519047002F519E4FAFDFEFF120026C2
:1001D600FC7B08200113120026FD7B1030000A125A
:1001E6000026FE120026FF7B20EC3382D592D550E6
:1001F60013C3E43000069FFFE49EFEE42001039D46
:10020600FDE49CFCE4CBF8C201EC700CCFCECDCC67
:10021600E824F8F870F38017C3EF33FFEE33FEEDF2
:1002260033FDEC33FCEB33FB994002FB0FD8E9EBD3
:10023600300105F8D0E0C448B201C0E00AEC4D4EEA
:100246004F78207B0070C2EAB5190040BCC0E012AE
:1002560002BBD0F0D0E0200104C4C0E0C4B201C0AB
:10026600F012004AD0F0D5F0EB02009A1203EA0130
:10027600375301B15801084C01044201B54F01BD85
:0F0286004401BD49011D4301C35501A74601A70E
:100295004501A747036350010C2D01102E01332B97
:1002A500011423013120034C2A00CC480000012B06
:1002B5003F3F3F00790AA2D5200314300509B91044
:1002C500020404B9080104A2D52006025001042045
:1002D50002689202B518005034C0E07F203003193F
:1002E5007F30A20272067205500F120312C202C2BB
:1002F50006C205C2087F30800F300503E9C0E01251
:100305000061300503D0E0F9D0E0B518CC30051711
:100315007F30B9100C1200617F583004077F788058
:1003250003B908031200613002057F2D0200617FC9
:10033500202008F87F2B2006F322920280CF286E1A
:10034500756C6C2900D2011200263001F8C20178C3
:100355001830D50108F60200CC2D5043495812003B
:10036500262403B405004001E490035E9312005275
:0D037500743A120052D2037518040201B14F
:10049400E4FFFE1203AF600C0FEF70010E09E97068
:0504A400F20A80EF22C6
:1003AF00BB010689828A83E0225002E722BBFE024C
:0903BF00E32289828A83E493227F
:1003C800BB010689828A83F0225002F722BBFE0114
:0203D800F3220E
:1003DA00FAE6FB0808E6F925F0F618E6CA3AF62224
:1003EA00D083D082F8E4937012740193700DA3A3A2
:1003FA0093F8740193F5828883E4737402936860B6
:06040A00EFA3A3A380DFB5
:10043900EFB40A07740D120444740A309811A8998C
:10044900B8130CC2983098FDA899C298B811F63023
:0704590099FDC299F59922FB
:00000001FF
