:0300000002036890
:0C036800787FE4F6D8FD75814C0203AFED
:100439000823FEFCF8F0E0C08000082BFFFFFFFF57
:10044900FFFFFFFF0933000103070F1F3F7FFF0A6B
:100459003DC0F9A4B0999282F88090014700014803
:1004690000014C00C185C180C182C181C183C184A1
:06059900E4FF0FBF04FCAB
:01059F002239
:0505A000D29002059954
:0505A500C2900205995F
:0E058300D291D290C291120599C290D29122CB
:08059100C2911205A0D29122D3
:0504AC001205837FD062
:0204B100AE0794
:1004B3007D01EE339206A2069291EE25E0FE12052F
:1004C300A01205A50DBD09EAD2911205A0A2919231
:0604D300061205A5A206B9
:0104D9002200
:10047A00E4FE7D011205A0A2919207EE25E0FEA2FC
:10048A0007E43342061205A50DBD09E8300604C289
:10049A00918002D2911205A0C290D291120599AF11
:0104AA00064B
:0104AB00222E
:10052A00AC05AB071204ACAF031204B1EC75F00AC8
:10053A0084C454F0FFEC75F00A84E5F04FFF12040E
:04054A00B102059164
:0204DA00AC076D
:1004DC001204ACAF041204B11205837FD11204B123
:1004EC00C20612047AAE07120591EEC4540F75F0D1
:0804FC000AA4FFEE540F2FFFCC
:0105040022D4
:10056E00AD21E4FF12052AAD227F0112052AAD3C12
:05057E007F0202052AC6
:10050500E5477020E548B4010612056EE4F548E4B8
:10051500FF1204DA8F217F011204DA8F227F021283
:0505250004DA8F3C2206
:1003F400120412E52275F00A84743D25F0F8E6FF34
:0E040400120412E52275F00A84243DF8E6FF8A
:10041200E4FDFCEFFB530380EB64807004D2A78001
:1004220002C2A7EF25E0FFC2A6D2A60DBD00010CB5
:06043200ED64084C70DDD2
:0104380022A1
:1002A800E5477037E52175F00A84743D25F0F8E6D6
:1002B800FF120412E52175F00A84243DF8E6FF12C6
:1002C80003F4E53C75F00A84743D25F0F8E6FF1266
:1002D8000412E53C120409C2A5D2A5E547640170E1
:1002E8002D7FFF1204127FFF1204127FFF120412E7
:1002F8007FFF120412E53C75F00A84743D25F0F87E
:10030800E6FF120412E53C120409C2A5D2A5E5478E
:10031800640270187FFF1204127FFF1203F47FFF3C
:100328001204127FFF120412C2A5D2A5E547640386
:10033800702DE52175F00A84743D25F0F8E6FF126A
:100348000412E5211204097FFF1204127FFF120430
:10035800127FFF1204127FFF120412C2A5D2A52237
:1001E400A2009205A2B5920030050F20000C05472D
:1001F400E547D394034003E4F547E54724FE604014
:10020400146073240260030202A7A2029201A2B640
:10021400920275480130010F20020C053CE53CD3E5
:1002240094174003E4F53CA2049203A2B79204306D
:10023400037120046E153CE53CF47067753C17228D
:10024400A2029201A2B6920275480130010F200267
:100254000C0522E522D3943B4003E4F522A2049248
:1002640003A2B7920430033B2004381522E522F49C
:10027400703175223B22A2029201A2B69202754805
:100284000130010E20020B0521E521D3943B4002ED
:100294000521A2049203A2B79204300306200403AA
:0402A400E4F521223A
:06010900890F8910891125
:10010F00AE11E4FCEE30E003D38001C392B1D2B064
:10011F00C2B0EEC313FE0CBC08EAAE10E4FCEE3026
:10012F00E003D38001C392B1D2B0C2B0EEC313FECD
:10013F000CBC08EAAE0FE4FCEE30E003D38001C341
:10014F0092B1D2B0C2B0EEC313FE0CBC08EAAE0E31
:10015F00E4FCEE30E003D38001C392B1D2B0C2B061
:10016F00EEC313FE0CBC08EAAE0DE4FCEE30E00368
:10017F00D38001C392B1D2B0C2B0EEC313FE0CBC98
:10018F0008EAAE03E4FCEE30E003D38001C392B182
:10019F00D2B0C2B0EEC313FE0CBC08EAAE05E4FC4D
:1001AF00EE30E003D38001C392B1D2B0C2B0EEC340
:1001BF0013FE0CBC08EAAE07E4FCEE30E003D3807C
:1001CF0001C392B1D2B0C2B0EEC313FE0CBC08EAA9
:0401DF00C2B2D2B224
:0101E30022F9
:020003008F0864
:10000500E4FAE50854072423F8E6F50979FFE5083D
:10001500C394004019E508940850137DFF7BFF89C0
:100025000D890E890F89108911AF0912010FE50895
:10003500C394084019E50894105013AF02AB018929
:100045000D890E890F89108911AD0912010FE50877
:10005500C394104019E50894185013AF02AD0289F6
:100065000D890E890F89108911AB0912010FE50859
:10007500C394184014E5089420500EAF02AD02ABAE
:100085000285090D890E120109E508C39420401463
:10009500E5089428500EAF02AD02AB028A0D850922
:1000A5000E120109E508C394284016E5089430505E
:1000B50010AF02AD02AB028A0D8A0E85090F12013F
:1000C5000BE508C39430401AE50894385014AF0284
:1000D500AD02AB028A0D8A0E8A0F850910891112AD
:1000E500010FE508C39438401AE508943C5014AF55
:1000F50002AD02AB028A0D8A0E8A0F8A108509119C
:0301050012010FD5
:0101080022D4
:10054E001204AC7F071204B17F101204B112059190
:10055E001201E41205051202A8AF2112000380F069
:1003740002054EE493A3F8E493A34003F68001F24C
:1003840008DFF48029E493A3F85407240CC8C3338A
:10039400C4540F4420C8834004F456800146F6DF59
:1003A400E4800B0102040810204080900439E47EAC
:1003B400019360BCA3FF543F30E509541FFEE4934E
:1003C400A360010ECF54C025E060A840B8E493A315
:1003D400FAE493A3F8E493A3C8C582C8CAC583CA40
:1003E400F0A3C8C582C8CAC583CADFE9DEE780BEF8
:010479000082
:00000001FF
